:020000040800F2
:10000000B017002085020008AD110008E5100008B7
:10001000A9110008C50F0008A51500080000000080
:10002000000000000000000000000000ED010008DA
:10003000C90F00080000000031020008A1130008E9
:100040009F0200089F0200089F0200089F0200080C
:100050009F0200089F0200089F0200089F020008FC
:100060009F0200089F0200089F0200089F020008EC
:100070009F0200089F0200089F0200089F020008DC
:100080009F0200089F0200089F0200089F020008CC
:100090009F0200089F0200089F0200089F020008BC
:1000A0009F0200089F0200089F0200089F020008AC
:1000B0009F0200089F0200089F0200089F0200089C
:1000C0009F0200089F0200089F0200089F0200088C
:1000D0009F0200089F0200089F0200089F0200087C
:1000E0009F0200089F0200089F0200089F0200086C
:1000F0009F0200089F0200089F0200089F0200085C
:100100009F0200089F0200089F0200089F0200084B
:100110009F0200089F0200089F0200089F0200083B
:100120009F0200089F0200089F0200089F0200082B
:1001300000F002F800F04AF80AA090E8000C8244AF
:100140008344AAF10107DA4501D100F03FF8AFF28C
:10015000090EBAE80F0013F0010F18BFFB1A43F0A5
:10016000010318475839000078390000103A24BFBD
:1001700078C878C1FAD8520724BF30C830C144BF0C
:1001800004680C607047000000230024002500264E
:10019000103A28BF78C1FBD8520728BF30C148BFEA
:1001A0000B607047642900F0F780732900F0E38149
:1001B000002070471FB59DE8030000F075FC00F0BB
:1001C0003FFA1FBD10B500F0A4FA10BD00F007FB08
:1001D0001146FFF7EFFF01F017FA00F00BFC03B434
:1001E000FFF7F0FF03BC00F0F1FD0000224B19689F
:1001F0000868B0E8F00F80F30988BFF36F8F4FF005
:10020000000080F311884EF00D0E704700000000D2
:1002100006480068006880F3088862B661B6BFF3DC
:100220004F8FBFF36F8F00DF00BF00BF08ED00E00E
:10023000EFF30980BFF36F8F0F4B1A6820E9F00FBF
:10024000106008B54FF0500080F31188BFF34F8F56
:10025000BFF36F8F02F0E8FC4FF0000080F31188CD
:10026000BDE8084019680868B0E8F00F80F3098815
:10027000BFF36F8F704700BF30000020EFF30580A1
:10028000704700000948804709480047FEE7FEE73D
:10029000FEE7FEE7FEE7FEE7FEE7FEE7FEE7FEE736
:1002A00004480549054A064B70470000B113000891
:1002B00031010008B0110020B0170020B013002059
:1002C000B01300200FB4044910B503AA029800F03F
:1002D00057F910BC5DF814FBA81000202DE9F0417F
:1002E0000E460446002020622046E168884730B36D
:1002F000252805D0D4E901219047206A401CF2E767
:10030000E168204600278847050018D0A5F1410084
:10031000192802D820354FF4006732462946204676
:100320002760FFF73FFF40B1012804D0F61D26F0FB
:1003300007060836D8E7361DD6E72846DAE7206AEA
:10034000BDE8F08170B50C460546012A05D0287835
:10035000800600D5EA69002302E0012305E05B1C6A
:10036000934202D2E05C0028F9D1A869E618C01ACD
:10037000A861286A184428622846AFF3008004E088
:10038000D5E9012114F8010B9047B442F8D328466F
:10039000AFF3008070BD00002DE9F0410646002457
:1003A00010687529314616A510D0AFF300800028DB
:1003B00002DA404213A507E031688A0701D512A589
:1003C00002E0490704D511A5012401E0AFF3008044
:1003D00000210A2206F1240709E0B0FBF2FCB0FB81
:1003E000F2F302FB1C00303078541846491C0028F8
:1003F000F3D123462A463046BDE8F04100F050B81C
:10040000000000002D0000002B0000002000000074
:10041000032A40F2308010F0030C00F0158011F830
:10042000013BBCF1020F624498BF11F801CB00F808
:10043000013B38BF11F8013BA2F1040298BF00F85C
:1004400001CB38BF00F8013B11F0030300F0AA8094
:10045000083AC0F0088051F8043B083A51F804CB40
:10046000A0E80810F5E7121D5CBF51F8043B40F806
:10047000043BAFF30080D20724BF11F8013B11F811
:1004800001CB48BF11F8012B24BF00F8013B00F855
:1004900001CB48BF00F8012B704770477047704789
:1004A0002DE9F0470D4699469246044600F124088E
:1004B0000168880604D5E06921F01001216000E0A0
:1004C0000120A84201DD471B00E00027A1697A193D
:1004D00002EB0900081AA0612078C00602D4204669
:1004E000AFF30080002608E0D4E901211AF80600E5
:1004F0009047206A401C761C20624E45F4DB207831
:10050000C0060AD52046AFF3008006E0D4E90121F9
:1005100030209047206A401C2062381EA7F1010756
:10052000F4DC07E0D4E9012118F805009047206ABF
:10053000401C2062281EA5F10105F3DC2046AFF324
:1005400000802078000602D50220BDE8F087012057
:10055000FBE710B5436913B1AFF3008001E0FFF78B
:10056000F1FE012010BD127800F124010A70002272
:100570004A700122EDE711684FF0FF32E9E7000011
:10058000074B70B50D467B4400F043F804462846FF
:1005900000F052F810B14FF0FF3070BD204670BD32
:1005A0005B10000010B5203AC0F00B80B1E8185085
:1005B000203AA0E81850B1E81850A0E81850BFF44D
:1005C000F5AF5FEA027C24BFB1E81850A0E81850EC
:1005D00044BF18C918C0BDE810405FEA827C24BF40
:1005E00051F8043B40F8043B08BF7047D20728BFCE
:1005F00031F8023B48BF11F8012B28BF20F8023B1D
:1006000048BF00F8012B704701694A1C0261087855
:10061000704700B58FB0CDE9013100210591054942
:100620007944CDE9031011466846FFF757FE0FB035
:1006300000BD0000E5FFFFFF007B00F08000704779
:1006400010B54248542100F0E5F94148542100F02A
:10065000E1F94048542100F0DDF93F493B483C4A6C
:100660003F4B08603D490A603A491960531C0365D5
:10067000481C1065012008653B48344A39A178447C
:1006800000F01CF920B9384878440A3800F0BBF96A
:1006900037482F4A35A1784400F010F920B9344882
:1006A00078440A3800F0AFF932482A4A2FA178443A
:1006B00000F004F920B92F4878440A3800F0A3F973
:1006C00040232248DC000021224600F0D4F820B16B
:1006D00025487844543800F096F91D4822464023B6
:1006E000002100F0C8F820B121487844543800F0C7
:1006F0008AF9184822461023002100F0BCF800288F
:1007000006D01C487844BDE81040563800F07BB94C
:1007100010BD104870B5006D20F001040B4800F0CA
:1007200043F90B4800F040F90A4800F03DF909E0B0
:10073000206D20F00105204600F036F9204600F03B
:1007400073F82C46002CF3D170BD0000541000202B
:10075000A8100020FC100020B0000020B4000020F1
:10076000B8000020720000002E3400007700000066
:100770001A340000063400000EB5CDE9000100F087
:1007800005FB029069460120ABBE0EBD08B5694667
:1007900000900220ABBE08BD1FB58DE8070069467A
:1007A0000520ABBE04B010BD1FB58DE80F00694633
:1007B0000620ABBEF6E708B5694600900920ABBE3F
:1007C00008BD1CB5CDE9000169460A20ABBE1CBDC1
:1007D000704708B5694600900C20ABBE08BD754651
:1007E00000F040F9AE4605006946534620F0070088
:1007F000854618B020B5FFF753FDBDE820404FF007
:1008000000064FF000074FF000084FF0000B21F0FA
:100810000701AC46ACE8C009ACE8C009ACE8C009C7
:10082000ACE8C0098D46704770B50446051F00F05E
:100830001FF90068002C14BF446870BD002C18BF5D
:10084000AC423CBF20466468F8D301680A18AA424B
:1008500018BF456003D12A68054611440160286825
:100860004119A1421CBF6C6070BD6168696021685C
:100870000844286070BD70B5C468A50713D0650230
:1008800011D4B2F5807F09D0B2F5007F06D0B2F561
:10089000806F08D1012300F1240106E05D1E6FF096
:1008A0007F46B54201D3012070BD0161C361416043
:1008B00024F470611143C160002070BD2DE9F04146
:1008C0000C4607461646104600F06EF82078611C6C
:1008D00061280AD0722802D077283CD102E0012595
:1008E000002405E00225042402E0082448F2020561
:1008F00011F8010B2B2806D0622809D011F8010C41
:1009000074280AD00BE045F0030544F00204EFE739
:1009100045F0040544F00104EAE744F010043846C9
:100920002146FFF729FF411C15D00021316171607C
:100930004FF40071F560F1617061200704D5304615
:100940000222002100F00EF9306D40F00100306508
:100950003046BDE8F0810020FBE72DE9F0410D466F
:100960000646104C206DC10704D0410804D020F089
:100970000104F7E722460EE0542000F0C4F8070017
:100980000ED0206D47F00101084354212065384600
:1009900000F040F83A4629463046BDE8F0418DE780
:1009A0000020D6E7541000202DE9F04704464FF010
:1009B00000094FF0FF37C568D4E90486A80707D0BF
:1009C000204600F07FF93046FFF7E0FE002802DA0B
:1009D0003846BDE8F087280502D54046FFF724FFDA
:1009E0004C21204600F016F8206D20F00100206513
:1009F0004846EEE710B50446AFF300802046BDE858
:100A00001040FFF7ECBB10B500F0A6F9BDE81040B0
:100A100000F09CB94FF0000200B51346944696468C
:100A2000203922BFA0E80C50A0E80C50B1F1200101
:100A3000BFF4F7AF090728BFA0E80C5048BF0CC0AF
:100A40005DF804EB890028BF40F8042B08BF70470D
:100A500048BF20F8022B11F0804F18BF00F8012B7F
:100A60007047000000487047501100207047000098
:100A70000048704758110020704770477047704712
:100A800038B504460A4600206946AFF300800028C6
:100A900008BF38BD02460099204600F0A4F90120A5
:100AA00038BD012000F0F3B9F8B5AFF3008005467A
:100AB00000200C46102000BF0646A819A0420DD900
:100AC000324669460020AFF30080070008BF00F0FF
:100AD000DEF90098A04218BF0546C419FFF7C8FF09
:100AE00005600746F01D20F007004619284600F073
:100AF00073F9B44208BFF8BDA21B31463868BDE89F
:100B0000F84000F070B970B50646FFF7B1FF056810
:100B100006F10B0020F00704B4429CBF002070BD1A
:100B20002B466A68BAB11068A04210D304F10801DC
:100B300088423CBF5068586007D351681019416023
:100B40001168091B016058601460101D70BD1346C8
:100B50005268002AE7D121462846FFF791FF002876
:100B6000DED170BD2DE9F041044616460D464769B9
:100B7000007B80072ED03846FFF71DFE50BB3EB3EA
:100B8000012E02D0022E25D104E0204600F045F9C6
:100B900005441DE03846FFF71CFEE168002841F0DF
:100BA0001001E16005DA204600F058F80120BDE8A8
:100BB000F081C9030BD56268E16A914200D8114601
:100BC000A26911442269891A814200DD0846054460
:100BD000002D01DA0220EAE7E16A6068E2688142FA
:100BE00006D29103E06203D522F4003141F01002F5
:100BF000A6690027AE4213DCE16A814201D90B46A7
:100C000000E0034603EB060C2369ACEB030CAC4598
:100C100006DD814201D98C4600E084469C4505D121
:100C2000A760276042F02000A5620DE0AD1BE669D9
:100C3000AE1B8142A66000D90846C01A281A20605F
:100C40005819606022F0200003490840E06000204D
:100C500084F84870ABE70000BFCFD7FFC16821F42C
:100C6000001141F08001C160002181600160704786
:100C70002DE9F047814614460E464FF0FF383248C2
:100C8000D5685769054209D03846A169FFF799FD33
:100C9000002811DB2C48C0430540E5602B46324656
:100CA00049463846FFF778FDA16920F00042B21AA4
:100CB00011440028A16103D02046FFF7CFFF404632
:100CC000BDE8F08770B504460569C06A616888426E
:100CD00000D80846E16821F42011E160C90312D56B
:100CE000A84208D02246411B2846FFF7C1FF10B199
:100CF0004FF0FF3070BD0020E562C4E90150E068AC
:100D000020F48030E060002070BD10B50446C0685B
:100D100020F02000E060A16AA06988420DD0204642
:100D2000FFF7D0FFE06820F4405040F01000E06092
:100D3000A06AA0612069E062606044F24001E0685E
:100D40008843E06010BD000010000200002801D0C0
:100D500000F03CB87047000010B5014602A000F05A
:100D60007DF8012010BD00005349475254524544BC
:100D70003A2052656469726563743A2063616E2734
:100D800074206F70656E3A200000000010B5431C9F
:100D900002E010F8011B71B18107FAD14FF0013266
:100DA00002C88C1A8C4314EAC211F9D0C01A0A0680
:100DB00003D0C01E10BDC01A10BD0A0401D0801E91
:100DC00010BD0902FCD0401E10BD000001491820D2
:100DD000ABBEFEE72600020000210160C0E9011061
:100DE000704710207047034640688C46002818BFA3
:100DF00088423CBF03464068F8D3186818448842CC
:100E000007D00CF1030020F00700001D411A521A10
:100E10000146081D0A60FFF707BD10B50146C2680C
:100E2000900703D0900607D5886A0AE000F03EF8E4
:100E300001210160881E10BD8B69486818440B6948
:100E4000C01A91F848301BB191F84910401A10BDF2
:100E50001103FCD50028FADD401E10BD70B5054613
:100E60000C460A2000E06D1C00F018F835B1287817
:100E70000028F8D102E0641C00F010F814B12078CA
:100E80000028F8D1BDE870400A2000F007B810B57E
:100E900000F010F8BDE81040FFF758BF08B56946EC
:100EA0008DF800000320ABBE08BD0000004870476D
:100EB0005011002010B5012805D0002103A0FFF734
:100EC000CDFF012010BD09A1F8E7000053494752AA
:100ED000544D454D3A204F7574206F66206865610A
:100EE00070206D656D6F7279000000003A204865D2
:100EF0006170206D656D6F727920636F72727570AD
:100F0000746564000EB501F013FA0F480F4904220E
:100F10000023CDE90021029080220DA10F4802F0AC
:100F2000ADFA0F4908600846006818B10DA0FFF738
:100F3000C9F902E014A0FFF7C5F91C48006801F0E8
:100F400063FC01F037FA0EBD5809002004070020A9
:100F50004C4544205461736B0000000035110008BB
:100F6000AC0000204C45445F5461736B20E4BBBB74
:100F7000E58AA1E5889BE5BBBAE68890E58A9FEF04
:100F8000BC815C6E000000004C45445F5461736B93
:100F900020E4BBBBE58AA1E5889BE5BBBAE5A4B12B
:100FA000E8B4A5EFBC815C6E00000000A800002042
:100FB00010B54FF4407000F0FBF800F095F800F029
:100FC00033FA10BD00BFFEE770472DE9F04102463D
:100FD00000250026002000230024002791F803C0EC
:100FE0000CF00F0591F803C00CF0100CBCF1000FD1
:100FF00003D091F802C04CEA050591F800C0BCF19D
:10100000000F31D0146800202BE04FF0010C0CFAD7
:1010100000F3B1F800C00CEA03069E4220D1830021
:101020004FF00F0C0CFA03F7BC4305FA03FC4CEA33
:10103000040491F803C0BCF1280F06D14FF0010C55
:101040000CFA00FCC2F814C00AE091F803C0BCF12D
:10105000480F05D14FF0010C0CFA00FCC2F810C08B
:10106000401C0828D1D31460B1F800C0BCF1FF0FB8
:1010700034DD546800202EE000F1080C4FF0010828
:1010800008FA0CF3B1F800C00CEA03069E4221D125
:1010900083004FF00F0C0CFA03F7BC4305FA03FC76
:1010A0004CEA040491F803C0BCF1280F05D100F10B
:1010B000080C08FA0CF8C2F8148091F803C0BCF1CF
:1010C000480F07D100F1080C4FF0010808FA0CF89E
:1010D000C2F81080401C0828CED35460BDE8F081CF
:1010E0000161704700BFFEE708B50121482000F00C
:1010F00069F82020ADF8000010208DF803000320CF
:101100008DF8020069460948FFF75FFF2020ADF81F
:10111000000069460648FFF758FF20210348FFF703
:10112000DFFF20210248FFF7DBFF08BD000C014074
:101130000018014014E020200A49086040F2DC5009
:1011400001F026FB08A0FFF7BDF820200549091F84
:1011500008604FF4FA7001F01BFB0BA0FFF7B2F828
:10116000E9E70000140C01406C6564305F74617342
:101170006B2072756E6E696E672C204C4544305F33
:101180004F4E0D0A000000006C6564305F7461739F
:101190006B2072756E6E696E672C204C4544305F13
:1011A0004F46460D0A00000000BFFEE770470000F2
:1011B00002490143024A1160704700000000FA052D
:1011C0000CED00E029B1064A92690243044B9A6192
:1011D00004E0034A92698243014B9A617047000020
:1011E0000010024030B500210022002400232D4DC4
:1011F0006D6805F00C0121B1042905D0082923D11F
:1012000005E0294D056022E0274D05601FE0254DD2
:101210006D6805F47012234D6D6805F48034022565
:1012200005EB92421CB9214D554305600BE01D4D65
:101230006D6805F400351DB11C4D5543056002E095
:10124000194D5543056002E0174D056000BF00BF12
:10125000144D6D6805F0F0010909154D6B5C0568CA
:10126000DD4045600F4D6D6805F4E061090A104DE1
:101270006B5C4568DD4085600A4D6D6805F4605122
:10128000C90A0B4D6B5C4568DD40C560054D6D6856
:1012900005F44041890B074D6B5CC568B5FBF3F560
:1012A000056130BD0010024000127A0000093D00C7
:1012B00094000020A400002010B500F001F810BD3B
:1012C0000CB50020019000903348006840F4803055
:1012D0003149086000BF3048006800F400300090D9
:1012E0000198401C0190009818B90198B0F5A06FC2
:1012F000F1D12948006800F4003010B101200090BD
:1013000001E0002000900098012843D123480068A4
:1013100040F01000214908600846006820F00300F2
:1013200008600846006840F0020008601A484068FB
:10133000194948600846406848600846406840F4DB
:10134000806048600846406820F47C104860084689
:10135000406840F4E81048600846006840F080703B
:10136000086000BF0C48006800F000700028F9D049
:101370000948406820F00300074948600846406873
:1013800040F00200486000BF0348406800F00C00D5
:101390000828F9D10CBD00000010024000200240D6
:1013A00010B502F0BDF8012801D001F0E3FC10BD3A
:1013B00010B51348006840F0010011490860084664
:1013C0004068104908400E494860084600680E49C8
:1013D00008400B4908600846006820F48020086037
:1013E0000846406820F4FE0048604FF41F00886003
:1013F000FFF762FF4FF000600449086010BD000075
:10140000001002400000FFF8FFFFF6FE08ED00E0CC
:1014100021B1828942F40052828104E082894DF632
:10142000FF731A408281704700B585B00121042006
:10143000FFF7C8FE01218803FFF7C4FE4FF40070D8
:10144000ADF8100018208DF8130003208DF812005D
:1014500004A91348FFF7B9FD4FF48060ADF8100000
:1014600004208DF8130004A90D48FFF7AEFD4FF4DA
:10147000E13000900020ADF80400ADF80600ADF8B2
:101480000800ADF80C000C20ADF80A0069460548CC
:1014900000F018F801210348FFF7BAFF05B000BDBE
:1014A000000801400038014002460020B1F5007FED
:1014B00000D100BF13880B400BB1012000E00020D9
:1014C000704700002DE9F04786B005460E4600241F
:1014D000A24600BFA1460027B08900B100BF2F4639
:1014E0002C8A4CF6FF700440F08804432C82AC89AF
:1014F0004EF6F3100440B0883189084371890843DF
:101500000443AC81AC8A4FF6FF400440B0890443E9
:10151000AC8201A8FFF766FE1F48874202D1DDF8C2
:1015200010A001E0DDF80CA0A88900F4004040B153
:101530000AEBCA0000EB0A1031684900B0FBF1F871
:1015400007E00AEBCA0000EB0A1031688900B0FB23
:10155000F1F86420B8FBF0F004012009642101FBDC
:101560001089A88900F4004040B1322000EBC90086
:10157000B0FBF1F000F00700044308E0322000EB7C
:1015800009106421B0FBF1F000F00F0004432C813E
:1015900006B0BDE8F087000000380140C1F3080242
:1015A0008280704700BFFEE701210120094A1268CE
:1015B0000AB100200CE0084A12680AB1002007E0D6
:1015C000064A1368064A1268521E934200D102204E
:1015D00070470000B403002054000020DC0300200A
:1015E0004000002070B504460D46E1B20548FFF703
:1015F000D5FF00BF80210348FFF756FF0028F9D030
:10160000204670BD003801400EB5FFF7D1FC0CA09C
:10161000FEF758FE1248134903220023CDE90021AA
:101620000290802210A1144801F028FF134908609D
:101630000846006808B101F051FA00BFFEE700005B
:101640004672656552544F5320E99D99E68081E5C5
:10165000889BE5BBBAE4BBBBE58AA1210D0A00006B
:1016600004090020040500204170705461736B432D
:101670007265617465000000050F0008A800002075
:101680002DE9F04105460E461C4807681C480068D5
:10169000001D00F0EBFD50B91948006890F82C10BF
:1016A0000120884017490968814316480160681C79
:1016B00038B936B112480168091D134800F02CFEF4
:1016C0001AE07C190E4800684460BC4207D20C48FE
:1016D0000168091D0D48006800F004FE0CE0084890
:1016E0000168091D0A48006800F0FCFD094800680F
:1016F000844201D207480460BDE8F0814400002024
:101700003000002048000020DC03002038000020CA
:10171000340000206000002010B5044600F008FEF0
:1017200023480068401C224908602248006840B9EC
:10173000204804600846006801280DD100F040FAF6
:101740000AE01D48006838B91A480068C06AE16AB2
:10175000884201D81748046018480068401C17499F
:10176000086094F82C100120884015490968084346
:1017700013490860E16A01EB8101124A02EB810022
:10178000211D00F0C9FD00F015FE0B48006868B18E
:1017900008480068C06AE16A884207D24FF080506A
:1017A00009490860BFF34F8FBFF36F8F10BD000072
:1017B00040000020300000204C0000205C00002091
:1017C000480000200C01002004ED00E008B500F006
:1017D000AFFD12480068E8B9114800F073FD1148E8
:1017E00000F070FD0E48104908600E480F4908606F
:1017F00000200F4B0F4A102100900A2001F0D4FA6C
:10180000064908600846006820B10BA1034800683B
:1018100000F082FF00F0CEFD08BD00007400002043
:10182000F0030020040400206C0000207000002061
:101830001804002064040020546D72510000000060
:1018400070B523E001F0E8F91348006808B90120F9
:1018500000E00020054601F0F7FFBDB900F068FD8B
:101860000D48C068C468201D00F000FD0B480068EA
:10187000401E0A4908600A480068401E084908607E
:1018800000F098FD204600F061F800BF04480068B1
:101890000028D7D170BD0000C80300204000002000
:1018A0003C00002070B504460D46206C70B1216CE0
:1018B000E0680844E0606168E068884201D320681D
:1018C000E0602846226CE168FEF7A2FD70BD2DE9BC
:1018D000F04104460F4615464FF00008A66B206CF9
:1018E00040B9206860BB606801F0E2FE80460020DD
:1018F000606025E07DB93946226CA068FEF788FD5E
:10190000216CA0680844A060D4E90110884217D374
:101910002068A06014E03946226CE068FEF778FD8C
:10192000216CE068401AE0602168E068884203D2D8
:10193000216C6068401AE060022D01D106B1761E6C
:10194000701CA0634046BDE8F081000010B504465D
:1019500094F8510030B9206B00F062FD204600F091
:101960005FFD15E094F85100012803D1204600F0F6
:1019700057FD0DE094F85100022801D1012000E04C
:10198000002028B940F6296202A108A0FEF79AFCBF
:1019900010BD00002E2E5C4672656552544F535C9C
:1019A0007372635C7461736B732E63004572726F44
:1019B000723A25732C25640D0A00000000210122D3
:1019C0000C4B1B68012B00D901210B4A1268D26A0B
:1019D0000AB100200DE0094A1268012A01D900204D
:1019E00007E009B1002004E0054A1268054B1B68B6
:1019F000D01A704748000020300000200C01002061
:101A000060000020440000200146084A1268126865
:101A10000AB9012200E000220A600A6822B9034ADA
:101A20001268D268106800E0002070476C00002047
:101A300000BFFFF705FF17480068012807D94FF0DE
:101A4000805015490860BFF34F8FBFF36F8FFFF7CA
:101A5000B5FF0446022C1BD301F0DEF80F480068E6
:101A60000F490968884201D3012000E0002028B90D
:101A700040F68C420BA111A0FEF724FCFFF79EFF5D
:101A80000446022C02D3204600F052FD01F0DCFE99
:101A9000CFE700000C01002004ED00E06000002012
:101AA000440000202E2E5C4672656552544F535CF4
:101AB0007372635C7461736B732E63004572726F33
:101AC000723A25732C25640D0A0000002DE9F041BF
:101AD00006460D4617469846069C0DB9246000E060
:101AE0002760E66325640121204601F0ADFA00205D
:101AF000A064BDE8F08100002DE9FF5F81460F463C
:101B00009246DDE90E6B109CAAF10100216B01EBFE
:101B1000800828F0070808F0070008B9012000E055
:101B2000002028B940F22B321BA121A0FEF7CAFBEE
:101B3000002507E0795D04F134004155785D00B976
:101B400002E06D1C102DF5D300BF0021432001558C
:101B5000202E00D31F26E66266640020A064201DAC
:101B600000F0BDFB04F1180000F0B9FB2461C6F1E0
:101B70002000A06164620020E06484F850004946BF
:101B80004046039A00F060FB2060BBF1000F01D0DB
:101B9000CBF80040BDE8FF9F2E2E5C467265655273
:101BA000544F535C7372635C7461736B732E630088
:101BB0004572726F723A25732C25640D0A0000007D
:101BC00010B5002407E004EB84010F4A02EB81000A
:101BD00000F078FB641C202CF5D30C4800F072FB5D
:101BE0000B4800F06FFB0B4800F06CFB0A4800F05C
:101BF00069FB0A4800F066FB04480949086004488C
:101C00000849086010BD00000C0100208C03002072
:101C1000A0030020B4030020C8030020DC03002040
:101C2000340000203800002010B50146164800E0BE
:101C3000006803688B42FBD30246436813448B421F
:101C400004D143684C682344436001460A464B680C
:101C500013440468A34211D10C4C03682468A342C6
:101C600008D04B680468646823444B6003681B68B1
:101C70000B6005E0054B1B680B6001E003680B601F
:101C8000884200D0016010BD180000202000002014
:101C90002DE9F04104460D4616461F464FF0000858
:101CA00065602461B5420CD8F01BA169884202D35B
:101CB0004FF0010811E0211D0948006800F012FBF7
:101CC0000BE0BE4204D2BD4202D34FF0010804E053
:101CD000211D0448006800F005FB4046BDE8F08186
:101CE000700000206C00002070B5054600F020FB5D
:101CF000A86B08B9012400E0002400F05BFB20463B
:101D000070BD70B5054600F013FBA86BE96B884207
:101D100001D1012400E0002400F04CFB204670BDFE
:101D20002DE9F3410D460098846C00272CB940F64C
:101D3000CE121AA11FA0FEF7C5FAA06BE16B884274
:101D400001D2012000E0002028B940F6CF1213A1F3
:101D500018A0FEF7B7FAA06BE16B88421BD294F98A
:101D600045602A4669462046FFF7B1FD0746701CCC
:101D700060B9606A08B9012000E0002050B904F1A0
:101D8000240001F003FD28B1012703E0701C40B2DC
:101D900084F8450000BF3846BDE8FC812E2E5C4625
:101DA00072656552544F535C7372635C71756575EF
:101DB000652E63004572726F723A25732C25640D8F
:101DC0000A000000F8B505460F4613480068C068D1
:101DD000C468201D00F04AFAE069012818D1A06902
:101DE00041192B463A462046FFF752FF80B10020AA
:101DF00003462A4601460090204601F005FE0646AD
:101E00002EB94FF4027205A10BA0FEF75BFA00BFDA
:101E10002046616A8847F8BD6C0000202E2E5C4683
:101E200072656552544F535C7372635C74696D657F
:101E300072732E63000000004572726F723A257350
:101E40002C25640D0A000000F0B587B073E00398FC
:101E500000280CDA04AE2EB940F2E7223BA142A0E2
:101E6000FEF730FAD6E90020B168904700BF03982A
:101E7000002860DB059C606908B9012000E00020B3
:101E800010B9201D00F0F2F902A800F0CBF80546C9
:101E900003980A284DD2DFE800F00905072C2E45EB
:101EA00006082D2F00BF00BF00BF00BF0498A26925
:101EB000811803462A462046FFF7EAFEC0B12046B5
:101EC000616A8847E069012812D1002000900498D7
:101ED000A169421800231946204601F095FD0746E6
:101EE0002FB940F2213219A11FA0FEF7EBF900BF74
:101EF00020E000BF1EE000BF0498A061A06908B107
:101F0000012000E0002028B94FF44E720FA116A066
:101F1000FEF7D8F9A06941192B462A462046FFF75B
:101F2000B7FE07E094F8280010B9204600F078FAD0
:101F300000E000BF00BF00231A4603A90E48006856
:101F400000F09CFF002882D107B0F0BD2E2E5C4629
:101F500072656552544F535C7372635C74696D654E
:101F600072732E63000000004572726F723A25731F
:101F70002C25640D0A00000074000020F8B5054609
:101F80000C4600F049FE684600F04CF80646009802
:101F900020BB44B9B54206D801F056FC314628466C
:101FA000FFF710FF1CE03CB10E480068006808B95C
:101FB000012000E000200446A91B22460A480068D0
:101FC00000F0C0FB01F040FC50B94FF080500749D1
:101FD0000860BFF34F8FBFF36F8F01E001F034FC57
:101FE000F8BD0000700000207400002004ED00E047
:101FF0000A490968096809B9012100E0002121B1F5
:102000004FF0FF31064A116006E004490968C968CB
:10201000C868034A4168116070470000340000201E
:102020006000002070B5044601F08AFA05460748B2
:102030000068854204D200F00BF80120206001E026
:102040000020206001480560284670BD7C0000200B
:102050002DE9F8432DE021480068C06805681F4855
:102060000068C068C468201D00F000F92046616A5D
:102070008847E06901281CD1A0694619AE4207D9FA
:1020800066602461211D1548006800F02BF910E0FE
:10209000002003462A4601460090204601F0B4FC89
:1020A00007462FB940F292320DA114A0FEF70AF9AB
:1020B00000BF0A480068006808B9012000E000205D
:1020C0000028C8D00548D0F80080104800680349AF
:1020D00008600E48C0F80080BDE8F8836C0000205E
:1020E0002E2E5C4672656552544F535C7372635C6E
:1020F00074696D6572732E63000000004572726F23
:10210000723A25732C25640D0A000000700000202F
:102110000B480068401C08B9012000E0002020B9ED
:10212000F42208A111A0FEF7CDF800BF502080F3E3
:102130001188BFF34F8FBFF36F8F00BF00BFFEE763
:10214000000000202E2E5C4672656552544F535C91
:10215000706F72745C525644535C41524D5F434DF4
:10216000335C706F72742E63000000004572726FF2
:10217000723A25732C25640D0A00000008B500BFD3
:102180006846FFF741FC044620460099FFF7F6FE3B
:10219000FFF75AFEF4E770B5044600F0C9F894F969
:1021A00045501AE0A06C38B100212046FFF7B8FD79
:1021B00088B100F0B1FB0EE0606A08B9012000E0D0
:1021C000002038B904F1240001F0E0FA18B100F061
:1021D000A3FB00E003E0681E45B2002DE2DC00BF77
:1021E000FF2084F8450000F0E5F800F0A1F894F92C
:1021F000445010E0206908B9012000E0002048B9EF
:1022000004F1100001F0C2FA08B100F085FB681E6D
:1022100045B200E001E0002DECDC00BFFF2084F8B7
:10222000440000F0C7F870BD0648006830B10549A9
:10223000096801F14800896C491C01600148006887
:102240007047000030000020001F4FF080730360D3
:10225000001F21F001030360001F034B03601438CB
:1022600002602038704700001121000801460A6909
:10227000D1E901309860D1E9010358605068884283
:1022800001D188685060002008611068401E10600D
:1022900010687047034B0360034B0B60802313608F
:1022A00070470000AC0F0020AC090020034B036016
:1022B000034B0B604FF480731360704700100020D5
:1022C000AC0B002000F1080141604FF0FF3181604C
:1022D00000F10801C1600161002101607047002127
:1022E0000161704710B502460B685C1C0CB910699F
:1022F00007E002F1080000E04068446824689C425E
:10230000FAD944684C604C68A160886041600A61F9
:102310001468641C146010BD42684A6093688B6046
:10232000936859609160086103685B1C03607047A3
:1023300010B500BF502080F31188BFF34F8FBFF35B
:102340006F8F00BF0B480068401C0A4908600846B0
:10235000006801280DD108480068C0B208B9012002
:1023600000E0002028B94FF4BD7204A10DA0FDF7D4
:10237000A9FF10BD0000002004ED00E02E2E5C46F9
:1023800072656552544F535C706F72745C52564460
:10239000535C41524D5F434D335C706F72742E63DA
:1023A000000000004572726F723A25732C25640D8F
:1023B0000A00000010B50B48006828B940F28112ED
:1023C00009A113A0FDF77EFF06480068401E0549DD
:1023D00008600846006820B9002080F3118800BF1B
:1023E00000BF10BD000000202E2E5C4672656552B5
:1023F000544F535C706F72745C525644535C41523C
:102400004D5F434D335C706F72742E6300000000AB
:102410004572726F723A25732C25640D0A00000014
:1024200070B506463546002E35D0083D2C461A4973
:1024300060680968084008B1012000E0002028B960
:102440004FF4A07215A11EA0FDF73CFF206808B94B
:10245000012000E0002028B940F241120FA118A08D
:10246000FDF730FF0C4960680968084098B12068A2
:1024700088B90949606809688843606000F0CCFB4E
:102480001349606809680844114908602046FFF74D
:10249000CBFB01F0D9F970BD2C0000202E2E5C463C
:1024A00072656552544F535C706F72745C4D656D0C
:1024B0004D616E675C686561705F342E630000007B
:1024C0004572726F723A25732C25640D0A00000064
:1024D00024000020124800684FF47A71B0FBF1F03C
:1024E00010490860084600686FF07F41B1FBF0F0CA
:1024F0000D4908600A480068B0FBF0F02D21B1FBDF
:10250000F0F00A490860064800684FF47A71B0FBA1
:10251000F1F0401E4FF0E02148610720086170474C
:102520008000002004000020080000200C00002093
:102530002DE9F04704464E480068844201D94C48D2
:1025400004684FF0E020006920F001004FF0E02126
:10255000086108468169601E464A126802FB001540
:1025600045480068854202D9434800682D1A72B672
:10257000BFF34F8FBFF36F8FFFF716F880B94FF09F
:10258000E02080694FF0E02148610846006940F092
:102590000100086137480068401E486162B665E086
:1025A0004FF0E020456100204FF0E02188610846AF
:1025B000006940F001000861A146B9F1000404D0AF
:1025C000BFF34F8F30BFBFF36F8F4FF0E020D0F8D5
:1025D000108028F001004FF0E021086162B608F495
:1025E0008030B8B123490968491E4FF0E022926952
:1025F000AA1A881A20490968884203D31D49096824
:10260000884202D91B490968481E4FF0E021486101
:10261000661E12E01748006860434FF0E0218969A8
:10262000471A14480068B7FBF0F6701C1149096896
:102630004843C01B4FF0E021486100204FF0E021EB
:102640008861FFF775FE4FF0E020006940F001005F
:102650004FF0E0210861304600F0ACFA0548006810
:10266000401E4FF0E0214861FFF7A4FEBDE8F0876F
:1026700008000020040000200C00002070B5FDF7C9
:10268000FDFD0546102D11D305F1E02090F8F04333
:1026900010480078844201DB012000E0002028B9C6
:1026A0004FF42A720CA116A0FDF70CFE1848006822
:1026B00000F4E06017490968884201D8012000E071
:1026C000002028B94FF42E7203A10DA0FDF7FAFDEA
:1026D00070BD0000100000202E2E5C467265655211
:1026E000544F535C706F72745C525644535C415249
:1026F0004D5F434D335C706F72742E6300000000B9
:102700004572726F723A25732C25640D0A00000021
:102710000CED00E014000020024600200BE0084B06
:1027200053F8303033B9064B43F8301003EBC00395
:102730005A6002E0401C0A28F1D300BF7047000035
:10274000BC0000202DE9F04105460E4617462C46F8
:10275000FFF7EEFD94F94400401C10B9002084F806
:10276000440094F94500401C10B9002084F845004D
:10277000FFF720FEA06B28B93A46314604F1240049
:1027800000F0FCF82046FFF706FDBDE8F0810000F0
:1027900070B504460025ACB10F48006808B90120A7
:1027A00000E0002028B940F2CF420CA111A0FDF7B3
:1027B00089FD00F031FA00212046FEF761FF01F0AB
:1027C00043F805463DB94FF080500E490860BFF30D
:1027D0004F8FBFF36F8F70BD680000202E2E5C46B8
:1027E00072656552544F535C7372635C7461736BB2
:1027F000732E63004572726F723A25732C25640D37
:102800000A00000004ED00E070B50546FFF790FDFA
:1028100015B92D48006800E028460446201DFFF742
:1028200025FD78B9E06A00EB8000284951F82000C6
:1028300040B994F82C10012088402549096881434B
:1028400023480160A06A18B104F11800FFF70EFDDB
:1028500020480068401C1F4908601B4800688442EB
:1028600009D1211D1C48FFF757FD1C480068401C7A
:102870001A49086009E01A480068401E18490860B3
:102880002046FFF763F8FFF7B3FBFFF793FD15480A
:102890000068C0B10C480068844214D11248006836
:1028A00008B9012000E0002028B940F265420FA1DC
:1028B00014A0FDF707FD4FF0805016490860BFF3E4
:1028C0004F8FBFF36F8F70BD300000200C010020D0
:1028D000480000205C000020C80300203C000020CD
:1028E000400000204C000020680000202E2E5C4696
:1028F00072656552544F535C7372635C7461736BA1
:10290000732E63004572726F723A25732C25640D25
:102910000A00000004ED00E0012001490860704752
:102920005400002070B504460D462CB940F606321E
:1029300007A10DA0FDF7C6FC0F480168183120461D
:10294000FFF7D0FC01212846FEF79AFE70BD00007B
:102950002E2E5C4672656552544F535C7372635CF5
:102960007461736B732E63004572726F723A2573D4
:102970002C25640D0A0000003000002070B50546CB
:102980000E4614462DB940F6313209A10EA0FDF7CE
:1029900099FC1148016818312846FFF7BDFC0CB1BD
:1029A0004FF0FF3621463046FEF76AFE70BD00004C
:1029B0002E2E5C4672656552544F535C7372635C95
:1029C0007461736B732E63004572726F723A257374
:1029D0002C25640D0A0000003000002070B505466B
:1029E0002C46002D4BD02649E06A0968C96A884206
:1029F00045D2A06900F0004028B921480068C06AAB
:102A0000C0F12000A061E16A01EB81011D4A02EBE7
:102A100081016069884201D1012000E0002050B3AB
:102A2000201DFFF723FC78B9E06A00EB8000154910
:102A300051F8200040B994F82C1001208840124928
:102A400009688143104801600D480068C06AE0626F
:102A500094F82C10012088400B49096808430A4962
:102A60000860E16A01EB8101064A02EB8100211D49
:102A7000FFF752FC03E002480068C06AE06270BDE4
:102A8000300000200C0100204800002010B5044652
:102A90002CB940F6C13205A10AA0FDF713FC0D4880
:102AA000006820600C480068606010BD2E2E5C46F7
:102AB00072656552544F535C7372635C7461736BDF
:102AC000732E63004572726F723A25732C25640D64
:102AD0000A000000580000204400002010B586B015
:102AE00000200590049003AA04A905A8FFF7D2FBD3
:102AF0000022DDE904101346CDE9002102901CA15B
:102B00001D48039A00F0BAFC1C490860084600689A
:102B100008B1012400E00024012C02D100F026FFBE
:102B20000446012C15D100BF502080F31188BFF35B
:102B30004F8FBFF36F8F00BF4FF0FF301049086019
:102B400001201049086000200F49086000F0C2F819
:102B50000BE0601C08B1012000E0002028B940F221
:102B600084720AA10FA0FDF7ADFB06B010BD0000F6
:102B700049444C4500000000311A00086400002060
:102B8000600000204C000020440000202E2E5C46F7
:102B900072656552544F535C7372635C7461736BFE
:102BA000732E63004572726F723A25732C25640D83
:102BB0000A00000010B504460B48006820440B4989
:102BC0000968884201D8012000E0002028B940F6B9
:102BD000711207A10CA0FDF775FB034800682044A3
:102BE0000149086010BD0000440000206000002082
:102BF0002E2E5C4672656552544F535C7372635C53
:102C00007461736B732E63004572726F723A257331
:102C10002C25640D0A00000002480068401C014990
:102C2000086070476800002010B51B48006818B1A4
:102C300001201A4908602DE0002018490860184852
:102C40000068B0FA80F0C0F11F0404EB840015495D
:102C500051F8200008B1012000E0002028B940F61A
:102C6000F62211A116A0FDF72DFB04EB84010D4AFD
:102C700002EB810041684968416000F10801426847
:102C80008A4202D14168496841604168C968104A76
:102C9000116000BF10BD000068000020540000203B
:102CA000480000200C0100202E2E5C467265655203
:102CB000544F535C7372635C7461736B732E630067
:102CC0004572726F723A25732C25640D0A0000005C
:102CD000300000201CB52248014609780191FF21EF
:102CE000024611700146097800919DF8001001F02C
:102CF00050011C4A117007211B4A116009E01A4952
:102D00000968491E184A11609DF800104906090E0D
:102D100000919DF8001001F080018029EFD0124948
:102D200009680902104A11601146098801F4E0613E
:102D300011600B4A019911700C48006840F4700052
:102D40000A4908600846006840F070400860FFF7D4
:102D5000C1FB002006490860FDF75AFA00201CBD9F
:102D600000E400E0100000201400002020ED00E04E
:102D70000000002010B500BF502080F31188BFF381
:102D80004F8FBFF36F8F00BF00F0E0FB18B14FF023
:102D900080500449086000BF002080F3118800BF04
:102DA00010BD000004ED00E02DE9F84380460E461A
:102DB00017461D46DDF82090B8F1000F01D0012024
:102DC00000E0002028B94FF4A97222A127A0FDF746
:102DD00079FA0DB1012000E0002028B94FF4AB7260
:102DE0001CA122A0FDF76EFA07B10EB1012000E090
:102DF000002028B94FF4AD7216A11CA0FDF762FAAD
:102E000007B90EB9012000E0002028B940F25B129A
:102E100010A116A0FDF756FA4C20009000984C28FF
:102E200001D1012000E0002028B940F2631209A17D
:102E30000EA0FDF747FA2C464CB1012084F846005D
:102E40004B463A46314640460094FEF73FFE204648
:102E5000BDE8F8832E2E5C4672656552544F535C74
:102E60007372635C71756575652E63004572726F70
:102E7000723A25732C25640D0A0000002DE9FF47E6
:102E800082B005460E461F464FF0000A2C462CB96C
:102E900040F2DC4261A167A0FDF714FA0EB9206C84
:102EA00008B9012000E0002028B940F2DD425BA112
:102EB00060A0FDF707FA00F033FB08B9049808B9E1
:102EC000012000E0002028B94FF49C6253A159A0D2
:102ED000FDF7F8F900BFFFF72BFAD4F83890B9F1F5
:102EE000000F3DD0D4F80C8031462046FEF7DAFCC6
:102EF000DFB9A9F10100A063206810B9FFF794F9C8
:102F00006060206908B9012000E0002010BB04F1D6
:102F1000100000F03BFCE8B14FF0805049490860D8
:102F2000BFF34F8FBFF36F8F14E0C4F80C80606A5B
:102F300008B9012000E0002060B904F1240000F08D
:102F400025FC38B14FF080503E490860BFF34F8FE9
:102F5000BFF36F8FFFF72EFA012006B0BDE8F087B0
:102F6000049818B9FFF726FA0020F6E7BAF1000F27
:102F700004D16846FFF78AFD4FF0010AFFF71AFAFD
:102F8000FFF74AFEFFF7D4F994F94400401C10B94A
:102F9000002084F8440094F94500401C10B900203A
:102FA00084F84500FFF706FA04A9684600F014FA11
:102FB00040BB2046FEF798FEF0B1206830B9FFF71D
:102FC000B7F96068FFF70AFDFFF7F4F904F1240090
:102FD0000499FFF7A7FC2046FFF7DDF800F034FC6A
:102FE00000287FF478AF4FF0805016490860BFF397
:102FF0004F8FBFF36F8F6EE72046FFF7CCF800F0DE
:1030000023FC68E72046FFF7C6F800F01DFC2046C9
:10301000FEF76AFE0028EED000209EE72E2E5C46CA
:1030200072656552544F535C7372635C717565755C
:10303000652E63004572726F723A25732C25640DFC
:103040000A00000004ED00E070B505460E462C466F
:103050002CB940F21B121EA123A0FDF733F9FFF794
:1030600067F9D4E90F12206801FB020060600020BC
:10307000A0632068A060E06B401E226C216800FB0A
:103080000210E060FF2084F8440084F845009EB9F7
:10309000206908B9012000E00020A8B904F110005F
:1030A00000F074FB80B14FF0805013490860BFF30B
:1030B0004F8FBFF36F8F07E004F11000FFF702F9A5
:1030C00004F12400FFF7FEF8FFF774F9012070BD4A
:1030D0002E2E5C4672656552544F535C7372635C6E
:1030E00071756575652E63004572726F723A25734E
:1030F0002C25640D0A00000004ED00E02DE9FF43DB
:1031000083B0064688461D464FF0000934462CB968
:1031100040F2D92260A166A0FDF7D4F8B8F1000F03
:1031200001D1206C08B9012000E0002028B940F24C
:10313000DA2259A15EA0FDF7C5F8022D02D1E06B9D
:10314000012801D1012000E0002028B940F2DB2253
:1031500051A157A0FDF7B6F800F0E2F908B90598BB
:1031600008B9012000E0002028B940F2DE224AA17F
:103170004FA0FDF7A7F800BFFFF7DAF8A06BE16BEF
:10318000884201D3022D38D12A4641462046FEF717
:103190009EFB0746A06C68B129462046FEF7C0FD9D
:1031A00028B34FF0805046490860BFF34F8FBFF3FC
:1031B0006F8F1CE0606A08B9012000E0002068B948
:1031C00004F1240000F0E2FA88B14FF080503C494D
:1031D0000860BFF34F8FBFF36F8F08E03FB14FF030
:1031E000805037490860BFF34F8FBFF36F8FFFF7F1
:1031F000E1F8012007B0BDE8F083059818B9FFF7A2
:10320000D9F80020F6E7B9F1000F04D101A8FFF7C3
:103210003DFC4FF00109FFF7CDF8FFF7FDFCFFF78C
:1032200087F894F94400401C10B9002084F8440049
:1032300094F94500401C10B9002084F84500FFF7C0
:10324000B9F805A901A800F0C7F8F0B92046FEF7C3
:1032500058FDA0B104F110000599FFF763FB20466B
:10326000FEF799FF00F0F0FA002885D14FF080506A
:1032700013490860BFF34F8FBFF36F8F7CE7204681
:10328000FEF789FF00F0E0FA76E72046FEF783FFBD
:1032900000F0DAFA0020ADE72E2E5C46726565522A
:1032A000544F535C7372635C71756575652E630072
:1032B0004572726F723A25732C25640D0A00000066
:1032C00004ED00E02DE9F05F80468A4615461E4673
:1032D00044462CB940F29F3235A13BA0FCF7F2FFE7
:1032E000BAF1000F01D1206C08B9012000E00020E4
:1032F00028B94FF468722EA133A0FCF7E3FF022E29
:1033000002D1E06B012801D1012000E0002028B9A2
:1033100040F2A13226A12CA0FCF7D4FFFFF7AEF9B2
:1033200000BF5021EFF3118081F31188BFF34F8F5D
:10333000BFF36F8F00BF0746A06BE16B884201D3DC
:10334000022E2BD194F945B0324651462046FEF765
:10335000BEFA0BF10100C8B9A06C40B1314620465D
:10336000FEF7DEFCB8B1B5B10120286013E0606A59
:1033700008B9012000E0002068B904F1240000F041
:1033800005FA40B13DB10120286004E00BF10100D5
:1033900040B284F845004FF0010901E04FF0000908
:1033A00000BF87F3118800BF4846BDE8F09F0000CA
:1033B0002E2E5C4672656552544F535C7372635C8B
:1033C00071756575652E63004572726F723A25736B
:1033D0002C25640D0A0000002DE9F04104460D463D
:1033E0002CB940F6CB3219A11EA0FCF76BFF2DB90A
:1033F00040F6CC3215A11BA0FCF764FFFEF798FF46
:103400001C4807682868401C08B9002619E01A49BA
:1034100020680968884204D06068B84201D8012653
:103420000FE06068381A2968884209D22868616804
:10343000791A401A28602046FFF728FB002600E092
:103440000126FEF7B7FF3046BDE8F0812E2E5C4620
:1034500072656552544F535C7372635C7461736B35
:10346000732E63004572726F723A25732C25640DBA
:103470000A00000044000020580000202DE9F04F11
:1034800085B00746884691469A46DDE90EB6109CFF
:103490000EB1012000E0002028B940F2552216A10B
:1034A0001BA0FCF70FFF0CB1012000E0002028B9A1
:1034B00040F2562210A116A0FCF704FFACB1A6B151
:1034C00025462E63022085F85100002004A95346AA
:1034D0004A46CDE900B1CDE9025041463846FEF7F3
:1034E0000BFB2846FEF718F901E000200490049831
:1034F00005B0BDE8F08F00002E2E5C467265655267
:10350000544F535C7372635C7461736B732E63000E
:103510004572726F723A25732C25640D0A00000003
:103520000549096809B9012005E00449096809B994
:10353000022000E0002070474C00002068000020BE
:103540000149086870470000440000202DE9F0415F
:103550004FF0000841480068002872D140480068D8
:10356000451C3F480560EDB93E480068006808B951
:10357000012000E0002028B940F6D9123AA140A06D
:10358000FCF7A0FE374807684148006835490860E5
:103590003F4807603F480068401C3E490860FEF70E
:1035A00027FD00BF3C48006885423CD300BF2D4842
:1035B0000068006808B9012000E0002020B14FF049
:1035C000FF30354908602DE026480068C068C468AF
:1035D0006668B54202D23048066023E0201DFEF73F
:1035E00045FEA06A18B104F11800FEF73FFE94F8FA
:1035F0002C100120884029490968084327490860A0
:10360000E16A01EB8101264A02EB8100211DFEF7F0
:1036100083FE2449E06A0968C96A8842C7D34FF02B
:103620000108C4E700BF1F480068C06A00EB8000C3
:103630001B4951F82000012801D94FF0010805E08D
:10364000FFE719480068401C1749086017480068E0
:1036500008B14FF001084046BDE8F0816800002045
:1036600044000020340000202E2E5C467265655216
:10367000544F535C7372635C7461736B732E63009D
:103680004572726F723A25732C25640D0A00000092
:103690003800002058000020600000204800002072
:1036A0000C010020300000205000002054000020B9
:1036B00070B505462C460026002D4BD026480068E4
:1036C000844201D1012000E0002028B940F6C76201
:1036D00022A128A0FCF7F6FDA06C28B940F6C9622B
:1036E0001EA124A0FCF7EEFDA06C401EA064616C3E
:1036F000E06A88422ED0A06C60BB201DFEF7B6FDAC
:1037000078B9E06A00EB80001E4951F8200040B90A
:1037100094F82C10012088401B49096881431A48FD
:103720000160606CE062E06AC0F12000A06194F882
:103730002C10012088401449096808431249086088
:10374000E16A01EB81010F4A02EB8100211DFEF7C6
:10375000E3FD0126304670BD300000202E2E5C4671
:1037600072656552544F535C7372635C7461736B22
:10377000732E63004572726F723A25732C25640DA7
:103780000A0000000C0100204800002070B5064629
:10379000F068C4682CB940F661321BA120A0FCF788
:1037A00091FD04F11800FEF761FD21480068A8B9F9
:1037B000201DFEF75BFD94F82C10012088401D4968
:1037C000096808431B490860E16A01EB81011A4A54
:1037D00002EB8100211DFEF79FFD04E004F11801BA
:1037E0001648FEF799FD1649E06A0968C96A8842D9
:1037F00004D9012501201349086000E00025FEF7E7
:10380000F7FB284670BD00002E2E5C46726565529F
:10381000544F535C7372635C7461736B732E6300FB
:103820004572726F723A25732C25640D0A000000F0
:1038300068000020480000200C010020B403002094
:10384000300000205400002070B5002400263448C9
:10385000006828B94FF4FD6232A138A0FCF732FDB0
:10386000FEF766FD2E480068401E2D490860084698
:10387000006800284FD13548006800284BD024E06C
:103880003348C068C46804F11800FEF7EFFC201D3F
:10389000FEF7ECFC94F82C10012088402D490968B3
:1038A00008432C490860E16A01EB81012A4A02EBD6
:1038B0008100211DFEF730FD2849E06A0968C96AC8
:1038C000884202D30120264908602148006808B9CF
:1038D000012000E000200028D2D00CB1FEF788FBC8
:1038E0002048056865B100BFFFF730FE10B1012028
:1038F0001B4908606D1E002DF6D100201949086093
:103900001748006838B10126300717490860BFF32F
:103910004F8FBFF36F8FFEF74DFD304670BD000037
:10392000680000202E2E5C4672656552544F535C31
:103930007372635C7461736B732E63004572726F94
:10394000723A25732C25640D0A0000004000002007
:10395000B4030020480000200C01002030000020AB
:10396000540000205000002004ED00E010B586B0A7
:103970000024FDF72BFF14480068D0B1002005900B
:10398000049003AA04A905A8FEF790FC1F22DDE914
:1039900004100023CDE9002102900CA10D48039AE8
:1039A000FFF76CFD0C4908600846006800B101246F
:1039B00000BF2CB940F2331208A10FA0FCF782FC23
:1039C000204606B010BD000074000020546D722027
:1039D000537663007D210008780000202E2E5C467F
:1039E00072656552544F535C7372635C74696D65A4
:1039F00072732E63000000004572726F723A257375
:103A00002C25640D0A0000002DE9FF4704460D46F1
:103A100016461F46DDF830804FF000092CB94FF4F0
:103A2000D37217A11DA0FCF74DFC2048006810B30D
:103A3000009501960294062D15DAFFF771FD022814
:103A400008D100234246694618480068FFF756FB34
:103A5000814610E000231A46694614480068FFF7C3
:103A60004DFB814607E000233A4669460F4800684F
:103A7000FFF728FC8146484604B0BDE8F087000007
:103A80002E2E5C4672656552544F535C7372635CB4
:103A900074696D6572732E63000000004572726F69
:103AA000723A25732C25640D0A0000007400002072
:103AB0003A7474003A7474003A747400DC3A000882
:103AC00000000020BC0000006C010008983B0008CA
:103AD000BC000020F416000088010008AAAAAAAAC7
:103AE00000000000000000000000000000000000D6
:103AF00000000000000000000000000000000000C6
:103B000000000000000000000000000000000000B5
:103B100000000000000000000000000000000000A5
:103B20000000000000000000000000000000000095
:103B30000000000000000000000000000000000085
:103B40000000000000000000000000000000000075
:103B500000000000000000000000000000A24A0475
:103B6000000000000000000001020304060708092D
:103B70000000000001020304010203040607080913
:103B80000204060800000000000000000000000021
:083B900000000000000000002D
:0400000508000131BD
:00000001FF
