:020000040800F2
:1000000060140020DD010008190C000875050008C7
:10001000150C00083903000831100008000000002A
:100020000000000000000000000000004501000882
:100030003D03000800000000890100082D0E0008A3
:10004000F7010008F7010008F7010008F7010008B0
:10005000F7010008F7010008F7010008F7010008A0
:10006000F7010008F7010008F7010008F701000890
:10007000F7010008F7010008F7010008F701000880
:10008000F7010008F7010008F7010008F701000870
:10009000F7010008F7010008F7010008F701000860
:1000A000F7010008F7010008F7010008F701000850
:1000B000F7010008F7010008F7010008F701000840
:1000C000F7010008F7010008F7010008F701000830
:1000D000F7010008F7010008F7010008F701000820
:1000E000F7010008F7010008F7010008F701000810
:1000F000F7010008F7010008F7010008F701000800
:10010000F7010008F7010008F7010008F7010008EF
:10011000F7010008F7010008F7010008F7010008DF
:10012000F7010008F7010008F7010008F7010008CF
:10013000DFF80CD000F08CF80048004725130008C9
:1001400060140020224B19680868B0E8F00F80F3B3
:100150000988BFF36F8F4FF0000080F311884EF0D5
:100160000D0E70470000000006480068006880F32C
:10017000088862B661B6BFF34F8FBFF36F8F00DFA1
:1001800000BF00BF08ED00E0EFF30980BFF36F8F01
:100190000F4B1A6820E9F00F106008B54FF05000BF
:1001A00080F31188BFF34F8FBFF36F8F02F0CAFB4C
:1001B0004FF0000080F31188BDE808401968086816
:1001C000B0E8F00F80F30988BFF36F8F704700BF6E
:1001D00030000020EFF3058070470000064880479C
:1001E00006480047FEE7FEE7FEE7FEE7FEE7FEE71C
:1001F000FEE7FEE7FEE7FEE73D0E000831010008DE
:1002000040EA01039B0703D009E008C9121F08C098
:10021000042AFAD203E011F8013B00F8013B521E18
:10022000F9D2704730B50B46014600202022012448
:1002300009E021FA02F59D4205D303FA02F5491BB4
:1002400004FA02F52844151EA2F10102F1DC30BDCA
:10025000064C074D06E0E06840F0010394E8070013
:1002600098471034AC42F6D3FFF766FFCC3700084E
:10027000EC3700080EB501F0E9FE0F480F490422E3
:100280000023CDE90021029080220DA10F4802F049
:1002900083FF0F4908600846006818B10DA000F000
:1002A000C9FE02E014A000F0C5FE1C48006802F080
:1002B00039F901F00DFF0EBD640900201007002080
:1002C0004C4344205461736B00000000190B00087C
:1002D000B00000204C43445F5461736B20E4BBBB0F
:1002E000E58AA1E5889BE5BBBAE68890E58A9FEFA1
:1002F000BC815C6E000000004C43445F5461736B32
:1003000020E4BBBBE58AA1E5889BE5BBBAE5A4B1C7
:10031000E8B4A5EFBC815C6E00000000AC000020DA
:1003200010B54FF4407000F079FC00F04DFC00F087
:10033000C1FD00F065F910BD00BFFEE77047000089
:1003400051B18200A2F1C042126842F00103820062
:10035000A2F1C042136009E08200A2F1C04212681B
:10036000034B1A408300A3F1C0431A60704700009A
:10037000FEFF0F00D0E901121143C2681143026968
:1003800011434269114382691143C2691143026AF0
:100390001143426A1143826A1143C26A1143026BDC
:1003A000114302689200A2F1C042116081680829DD
:1003B0000BD101688900A1F1C041096841F04002F8
:1003C00001688900A1F1C0410A60416B0968426B74
:1003D000526841EA0211426B926841EA0221426B83
:1003E000928941EA0241426B128A41EA0251426B10
:1003F000127D41EA0261426B926911430268521C0C
:100400009200A2F1C0421160C16AB1F5804F1BD1C8
:10041000816B0968826B526841EA0211826B9268B3
:1004200041EA0221826B128A41EA0251826B127DFB
:1004300041EA0261826B9269114302689200A2F163
:10044000C042C2F8041107E06FF0704201688900F1
:10045000A1F1C041C1F8042170472DE9F0410246E5
:1004600000250026002000230024002791F803C067
:100470000CF00F0591F803C00CF0100CBCF1000F4C
:1004800003D091F802C04CEA050591F800C0BCF118
:10049000000F31D0146800202BE04FF0010C0CFA53
:1004A00000F3B1F800C00CEA03069E4220D183009D
:1004B0004FF00F0C0CFA03F7BC4305FA03FC4CEAAF
:1004C000040491F803C0BCF1280F06D14FF0010CD1
:1004D0000CFA00FCC2F814C00AE091F803C0BCF1A9
:1004E000480F05D14FF0010C0CFA00FCC2F810C007
:1004F000401C0828D1D31460B1F800C0BCF1FF0F34
:1005000034DD546800202EE000F1080C4FF00108A3
:1005100008FA0CF3B1F800C00CEA03069E4221D1A0
:1005200083004FF00F0C0CFA03F7BC4305FA03FCF1
:100530004CEA040491F803C0BCF1280F05D100F186
:10054000080C08FA0CF8C2F8148091F803C0BCF14A
:10055000480F07D100F1080C4FF0010808FA0CF819
:10056000C2F81080401C0828CED35460BDE8F0814A
:100570000161704700BFFEE770B5044600260948D8
:100580000588408845430021084600F0ABFA00F09A
:1005900009FB00BF02E004480480761CAE42FAD397
:1005A00070BD0000000500200008006C10B5044676
:1005B0008CB9002011498871F02008804FF4A07098
:1005C00048802C2008812A2048812B208881002007
:1005D00000F00EFA10E00120084988714FF4A07075
:1005E0000880F02048802C2008812A2048812B2078
:1005F0008881052000F0FCF910BD000000050020F6
:1006000000B59FB00121080200F012FB01214FF458
:10061000B47000F01DFB0120ADF8780010208DF8BB
:100620007B0003208DF87A001EA9E048FFF715FF34
:100630004CF23370ADF8780018208DF87B00032061
:100640008DF87A001EA9DA48FFF707FF4FF6807091
:10065000ADF8780018208DF87B0003208DF87A0023
:100660001EA9D448FFF7F9FE41F20100ADF8780069
:1006700018208DF87B0003208DF87A001EA9CE4843
:10068000FFF7EBFE01200890002009900F200A9050
:1006900000200B900C900D900E9001900290032082
:1006A00003900020049005900690079006200F907C
:1006B000002010901190102012900020139015909F
:1006C0001490169017904FF48050189000201990B5
:1006D0004FF480401A9000201B9008A81C9001A89D
:1006E0001D900FA8FFF746FE01210620FFF728FE08
:1006F000322000F09BFD002000F06EF9AF498880A9
:1007000008468088FF280ADB084680884FF6FF717C
:10071000884204D0A9488088B0F5134F1DD1D3205A
:1007200000F03AFA00F04EF9A449888000F04AF946
:10073000A249888000F046F9A04988800846808850
:100740004FF6FF7101EA00209C49888000F03AF9D9
:100750009A4989880843994988809848808849F24D
:10076000413188427ED1CF2000F016FA002000F0FF
:100770000DFAC12000F00AFA302000F007FAED204F
:1007800000F00AFA642000F001FA032000F0FEF9FC
:10079000122000F0FBF9812000F0F8F9E82000F0C9
:1007A000FBF9852000F0F2F9102000F0EFF97A2033
:1007B00000F0ECF9CB2000F0EFF9392000F0E6F979
:1007C0002C2000F0E3F9002000F0E0F9342000F0E4
:1007D000DDF9022000F0DAF9F72000F0DDF9202041
:1007E00000F0D4F9EA2000F0D7F9002000F0CEF9AB
:1007F000002000F0CBF9C02000F0CEF91B2000F063
:10080000C5F9C12000F0C8F9012000F0BFF9C520EA
:1008100000F0C2F9302000F0B9F9302000F0B6F94C
:10082000C72000F0B9F9B72000F0B0F9362000F089
:10083000B3F9482000F0AAF93A2000F0ADF95520AC
:1008400000F0A4F9B12000F0A7F9002000F09EF913
:100850001A2000F09BF9B62000F09EF90A2000F063
:1008600095F900E095E0A22000F090F9F22000F068
:1008700093F9002000F08AF9262000F08DF901207C
:1008800000F084F9E02000F087F90F2000F07EF9F5
:100890002A2000F07BF9282000F078F9082000F0E9
:1008A00075F90E2000F072F9082000F06FF954205D
:1008B00000F06CF9A92000F069F9432000F066F916
:1008C0000A2000F063F90F2000F060F9002000F02A
:1008D0005DF9002000F05AF9002000F057F90020DF
:1008E00000F054F9E12000F057F9002000F04EF933
:1008F000152000F04BF9172000F048F9072000F010
:1009000045F9112000F042F9062000F03FF92B20B4
:1009100000F03CF9562000F039F93C2000F036F99F
:10092000052000F033F9102000F030F90F2000F01E
:100930002DF93F2000F02AF93F2000F027F90F2081
:1009400000F024F92B2000F027F9002000F01EF918
:10095000002000F01BF9012000F018F93F2000F002
:1009600015F92A2000F018F9002000F00FF90020F6
:1009700000F00CF9002000F009F9EF2000F006F972
:10098000112000F009F9782000F050FC292000F037
:1009900003F90020FFF70AFE0120094908604FF61D
:1009A000FF70FFF7E9FD1FB000BD0000000C014023
:1009B0000014014000180140002001400005002003
:1009C0008081214208B5034800880090BDF80000EE
:1009D00008BD00000008006C10B50446204600F079
:1009E000DBF8052000F048FCFFF7ECFF10BD00002D
:1009F00070B5054600230026082D1CD2DFE805F05F
:100A00000406090C0F12151800BF14E043F0800310
:100A100011E043F040030EE043F0C0030BE043F06D
:100A2000200308E043F0600305E043F0A00302E088
:100A300043F0E00300BF00BF362643F00803194629
:100A4000304600F0B9F803F0200068B1244800886F
:100A500023494988884214DA21480488408820497B
:100A60000880084644800CE01D4800881C494988DD
:100A7000884206DD1A4804884088194908800846DB
:100A800044801749488900F087F8002000F07EF87C
:100A9000002000F07BF812490988491EC1F30F209D
:100AA00000F074F80E490978491EC8B200F06EF8DB
:100AB0000B49888900F070F8002000F067F80020EA
:100AC00000F064F806494988491EC1F30F2000F080
:100AD0005DF803498978491EC8B200F057F870BD27
:100AE0000005002000B502460B460A49488900F07F
:100AF00053F8101200F04AF8D0B200F047F8054958
:100B0000888900F049F8181200F040F8D8B200F0D7
:100B10003DF800BD0005002014E020200A490860CF
:100B200040F2DC5001F0C2FC08A000F083FA202063
:100B30000549091F08604FF4FA7001F0B7FC0BA0DB
:100B400000F078FAE9E70000140C01406C656430AD
:100B50005F7461736B2072756E6E696E672C204CCA
:100B60004544305F4F4E0D0A000000006C65643054
:100B70005F7461736B2072756E6E696E672C204CAA
:100B80004544305F4F46460D0A0000000149088089
:100B9000704700000008006C0149088070470000A1
:100BA000FE07006C02480089024908807047000077
:100BB00000050020FE07006C024A1080921C118084
:100BC00070470000FE07006C08B50121482000F0C6
:100BD0003FF82020ADF8000010208DF8030003201E
:100BE0008DF8020069460948FFF737FC2020ADF870
:100BF000000069460648FFF730FC20210348FFF754
:100C0000B7FC20210248FFF7B3FC08BD000C0140EF
:100C10000018014000BFFEE7704700000249014391
:100C2000024A1160704700000000FA050CED00E078
:100C300029B1064A52690243044B5A6104E0034A4F
:100C400052698243014B5A61704700000010024014
:100C500029B1064A92690243044B9A6104E0034AAF
:100C600092698243014B9A61704700000010024074
:100C700030B500210022002400232D4D6D6805F0C1
:100C80000C0121B1042905D0082923D105E0294D03
:100C9000056022E0274D05601FE0254D6D6805F4D5
:100CA0007012234D6D6805F48034022505EB9242E5
:100CB0001CB9214D554305600BE01D4D6D6805F4D1
:100CC00000351DB11C4D5543056002E0194D5543DB
:100CD000056002E0174D056000BF00BF144D6D6850
:100CE00005F0F0010909154D6B5C0568DD404560B4
:100CF0000F4D6D6805F4E061090A104D6B5C4568A5
:100D0000DD4085600A4D6D6805F46051C90A0B4DE0
:100D10006B5C4568DD40C560054D6D6805F440417C
:100D2000890B074D6B5CC568B5FBF3F5056130BDFC
:100D30000010024000127A0000093D0094000020DB
:100D4000A400002010B500F001F810BD0CB5002083
:100D5000019000903348006840F4803031490860C9
:100D600000BF3048006800F4003000900198401C3B
:100D70000190009818B90198B0F5A06FF1D12948F9
:100D8000006800F4003010B10120009001E0002064
:100D900000900098012843D12348006840F01000DB
:100DA000214908600846006820F0030008600846F2
:100DB000006840F0020008601A484068194948601D
:100DC0000846406848600846406840F480604860D3
:100DD0000846406820F47C1048600846406840F4AB
:100DE000E81048600846006840F08070086000BF66
:100DF0000C48006800F000700028F9D009484068ED
:100E000020F00300074948600846406840F00200AF
:100E1000486000BF0348406800F00C000828F9D182
:100E20000CBD0000001002400020024010B502F08E
:100E300005FA012801D001F02BFE10BD10B51348B2
:100E4000006840F0010011490860084640681049F8
:100E500008400E494860084600680E4908400B49A2
:100E600008600846006820F4802008600846406852
:100E700020F4FE0048604FF41F008860FFF762FF17
:100E80004FF000600449086010BD000000100240EF
:100E90000000FFF8FFFFF6FE08ED00E021B18289B7
:100EA00042F40052828104E082894DF6FF731A40B9
:100EB0008281704700B585B001210420FFF7C8FE8C
:100EC00001218803FFF7C4FE4FF40070ADF8100055
:100ED00018208DF8130003208DF8120004A9134880
:100EE000FFF7BBFA4FF48060ADF8100004208DF8D6
:100EF000130004A90D48FFF7B0FA4FF4E130009059
:100F00000020ADF80400ADF80600ADF80800ADF81B
:100F10000C000C20ADF80A006946054800F018F8EE
:100F200001210348FFF7BAFF05B000BD00080140EA
:100F30000038014002460020B1F5007F00D100BF1B
:100F400013880B400BB1012000E000207047000027
:100F50002DE9F04786B005460E460024A24600BFA4
:100F6000A1460027B08900B100BF2F462C8A4CF65D
:100F7000FF700440F08804432C82AC894EF6F310D5
:100F80000440B08831890843718908430443AC8127
:100F9000AC8A4FF6FF400440B0890443AC8201A8FC
:100FA000FFF766FE1F48874202D1DDF810A001E07E
:100FB000DDF80CA0A88900F4004040B10AEBCA009B
:100FC00000EB0A1031684900B0FBF1F807E00AEBCA
:100FD000CA0000EB0A1031688900B0FBF1F8642008
:100FE000B8FBF0F004012009642101FB1089A889F5
:100FF00000F4004040B1322000EBC900B0FBF1F03A
:1010000000F00700044308E0322000EB09106421DF
:10101000B0FBF1F000F00F0004432C8106B0BDE8F6
:10102000F087000000380140C1F308028280704759
:1010300000BFFEE70FB4054B10B503A9044A0298A0
:1010400000F018F810BC5DF814FB00000113000854
:10105000B400002002E008C8121F08C1002AFAD11B
:1010600070477047002001E001C1121F002AFBD128
:10107000704700002DE9FF4F8BB09A460F4605469A
:10108000002606E025280BD052460D9990476D1C8E
:10109000761C28780028F5D10FB03046BDE8F08FD7
:1010A0000024A0460122604900E0044315F8013FF6
:1010B000203B02FA03F00842F7D128782E2817D1F6
:1010C00015F8010F44F004042A280ED06FF02F0207
:1010D0002878A0F1300109290AD808EB880102EB31
:1010E000410100EB01086D1CF2E757F8048B6D1C01
:1010F000287869283ED006DC0028CDD063280BD0A4
:10110000642804D136E0732810D075284BD052469D
:101110000D999047761C85E017F8040B8DF80000B8
:1011200000208DF80100E946012003E057F8049BF8
:101130004FF0FF3061074FF0000401D40AE0641C57
:1011400044450DDA8442FADB19F804100029F6D17F
:1011500006E0641C8442FCDB19F804100029F8D175
:10116000264404E019F8010B52460D999047641E7D
:10117000F8D257E001CF4FF00A0B002802DA4042C4
:101180002D2102E0210504D52B218DF82410012109
:1011900003E0E10705D02021F7E70DF120090891D0
:1011A0000CE00021F9E701CF4FF00A0BF9E75946AF
:1011B000FFF738F801F1300209F8012D0028F6D1C7
:1011C000ADEB090000F1200B600701D44FF00108DE
:1011D000D84502DDA8EB0B0000E00020804600248B
:1011E00006E009A85246005D0D999047641C761CE4
:1011F00008988442F5DB04E0302052460D99904770
:10120000761CB8F10001A8F10108F5DC05E019F839
:10121000010B52460D999047761CBBF10001ABF1D2
:10122000010BF4DC6D1C34E7092801000146114A6A
:1012300012884A434FF0E0235A6100229A611A460D
:10124000126942F001021A6100BF4FF0E0221069FA
:1012500000F001021AB100F48032002AF5D04FF0FC
:10126000E022126922F001024FF0E0231A6100220D
:101270009A617047AA0000200146114A12784A4339
:101280004FF0E0235A6100229A611A46126942F037
:1012900001021A6100BF4FF0E022106900F0010264
:1012A0001AB100F48032002AF5D04FF0E022126922
:1012B00022F001024FF0E0231A6100229A61704788
:1012C000A800002001210120094A12680AB100206B
:1012D0000CE0084A12680AB1002007E0064A1368C9
:1012E000064A1268521E934200D102207047000045
:1012F000B003002054000020D8030020400000204C
:1013000070B504460D46E1B20548FFF78DFE00BFFB
:1013100080210348FFF70EFE0028F9D0204670BD5B
:10132000003801400EB5FEF7FBFF0CA0FFF782FE70
:101330001248134903220023CDE9002102908022A4
:1013400010A1144801F028FF1349086008460068FE
:1013500008B101F051FA00BFFEE700004672656572
:1013600052544F5320E99D99E68081E5889BE5BB67
:10137000BAE4BBBBE58AA1210D0A000010090020D8
:10138000100500204170705461736B437265617485
:101390006500000075020008AC0000202DE9F04156
:1013A00005460E461C4807681C480068001D00F0F2
:1013B000EBFD50B91948006890F82C1001208840C6
:1013C00017490968814316480160681C38B936B16D
:1013D00012480168091D134800F02CFE1AE07C1920
:1013E0000E4800684460BC4207D20C480168091DE1
:1013F0000D48006800F004FE0CE008480168091D73
:101400000A48006800F0FCFD09480068844201D2E7
:1014100007480460BDE8F08144000020300000204F
:1014200048000020D80300203800002034000020AD
:101430006000002010B5044600F008FE2348006854
:10144000401C224908602248006840B920480460D6
:101450000846006801280DD100F040FA0AE01D4856
:10146000006838B91A480068C06AE16A884201D841
:101470001748046018480068401C1749086094F831
:101480002C10012088401549096808431349086059
:10149000E16A01EB8101124A02EB8100211D00F09B
:1014A000C9FD00F015FE0B48006868B108480068E7
:1014B000C06AE16A884207D24FF08050094908604B
:1014C000BFF34F8FBFF36F8F10BD000040000020AF
:1014D000300000204C0000205C000020480000206C
:1014E0000801002004ED00E008B500F0AFFD12484F
:1014F0000068E8B9114800F073FD114800F070FD74
:101500000E48104908600E480F49086000200F4B34
:101510000F4A102100900A2001F0D4FA0649086011
:101520000846006820B10BA10348006800F082FF64
:1015300000F0CEFD08BD000074000020EC03002088
:10154000000400206C000020700000201404002023
:1015500060040020546D72510000000070B523E05B
:1015600001F0E8F91348006808B9012000E0002004
:10157000054601F0F7FFBDB900F068FD0D48C068F1
:10158000C468201D00F000FD0B480068401E0A4999
:1015900008600A480068401E0849086000F098FD8D
:1015A000204600F061F800BF044800680028D7D149
:1015B00070BD0000C4030020400000203C0000205B
:1015C00070B504460D46206C70B1216CE06808448B
:1015D000E0606168E068884201D32068E0602846E6
:1015E000226CE168FEF70CFE70BD2DE9F041044667
:1015F0000F4615464FF00008A66B206C40B92068D6
:1016000060BB606801F0E2FE80460020606025E07B
:101610007DB93946226CA068FEF7F2FD216CA06806
:101620000844A060D4E90110884217D32068A06064
:1016300014E03946226CE068FEF7E2FD216CE068B8
:10164000401AE0602168E068884203D2216C60683B
:10165000401AE060022D01D106B1761E701CA06315
:101660004046BDE8F081000010B5044694F85100F2
:1016700030B9206B00F062FD204600F05FFD15E000
:1016800094F85100012803D1204600F057FD0DE0E9
:1016900094F85100022801D1012000E0002028B96F
:1016A00040F6296202A108A0FFF7C4FC10BD0000AB
:1016B0002E2E5C4672656552544F535C7372635CA8
:1016C0007461736B732E63004572726F723A257387
:1016D0002C25640D0A000000002101220C4B1B6820
:1016E000012B00D901210B4A1268D26A0AB10020ED
:1016F0000DE0094A1268012A01D9002007E009B16A
:10170000002004E0054A1268054B1B68D01A704798
:101710004800002030000020080100206000002068
:10172000440000200146084A126812680AB90122E2
:1017300000E000220A600A6822B9034A1268D268EF
:10174000106800E0002070476C00002000BFFFF729
:1017500005FF17480068012807D94FF08050154948
:101760000860BFF34F8FBFF36F8FFFF7B5FF0446DD
:10177000022C1BD301F0DEF80F4800680F490968FE
:10178000884201D3012000E0002028B940F68C42B5
:101790000BA111A0FFF74EFCFFF79EFF0446022CA1
:1017A00002D3204600F052FD01F0DCFECFE700003E
:1017B0000801002004ED00E060000020440000204B
:1017C0002E2E5C4672656552544F535C7372635C97
:1017D0007461736B732E63004572726F723A257376
:1017E0002C25640D0A0000002DE9F04106460D4647
:1017F00017469846069C0DB9246000E02760E66312
:1018000025640121204601F0ADFA0020A064BDE866
:10181000F08100002DE9FF5F81460F469246DDE929
:101820000E6B109CAAF10100216B01EB800828F0DF
:10183000070808F0070008B9012000E0002028B9D7
:1018400040F22B321BA121A0FFF7F4FB002507E09B
:10185000795D04F134004155785D00B902E06D1CFA
:10186000102DF5D300BF002143200155202E00D3B9
:101870001F26E66266640020A064201D00F0BDFB08
:1018800004F1180000F0B9FB2461C6F12000A0614A
:1018900064620020E06484F8500049464046039AA0
:1018A00000F060FB2060BBF1000F01D0CBF80040DE
:1018B000BDE8FF9F2E2E5C4672656552544F535C07
:1018C0007372635C7461736B732E63004572726F25
:1018D000723A25732C25640D0A00000010B500240F
:1018E00007E004EB84010F4A02EB810000F078FB73
:1018F000641C202CF5D30C4800F072FB0B4800F060
:101900006FFB0B4800F06CFB0A4800F069FB0A48CB
:1019100000F066FB0448094908600448084908606B
:1019200010BD000008010020880300209C03002057
:10193000B0030020C4030020D8030020340000209E
:101940003800002010B50146164800E00068036822
:101950008B42FBD30246436813448B4204D1436855
:101960004C682344436001460A464B6813440468AC
:10197000A34211D10C4C03682468A34208D04B68E1
:101980000468646823444B6003681B680B6005E0CF
:10199000054B1B680B6001E003680B60884200D0B8
:1019A000016010BD18000020200000202DE9F0414A
:1019B00004460D4616461F464FF000086560246138
:1019C000B5420CD8F01BA169884202D34FF0010840
:1019D00011E0211D0948006800F012FB0BE0BE4237
:1019E00004D2BD4202D34FF0010804E0211D044897
:1019F000006800F005FB4046BDE8F0817000002063
:101A00006C00002070B5054600F020FBA86B08B9FB
:101A1000012400E0002400F05BFB204670BD70B59F
:101A2000054600F013FBA86BE96B884201D1012445
:101A300000E0002400F04CFB204670BD2DE9F3418E
:101A40000D460098846C00272CB940F6CE121AA1DE
:101A50001FA0FFF7EFFAA06BE16B884201D20120D3
:101A600000E0002028B940F6CF1213A118A0FFF71C
:101A7000E1FAA06BE16B88421BD294F945602A46DB
:101A800069462046FFF7B1FD0746701C60B9606AE1
:101A900008B9012000E0002050B904F1240001F051
:101AA00003FD28B1012703E0701C40B284F8450013
:101AB00000BF3846BDE8FC812E2E5C46726565523B
:101AC000544F535C7372635C71756575652E63006A
:101AD0004572726F723A25732C25640D0A0000005E
:101AE000F8B505460F4613480068C068C468201D55
:101AF00000F04AFAE069012818D1A06941192B4683
:101B00003A462046FFF752FF80B1002003462A469E
:101B100001460090204601F005FE06462EB94FF41E
:101B2000027205A10BA0FFF785FA00BF2046616A8B
:101B30008847F8BD6C0000202E2E5C467265655209
:101B4000544F535C7372635C74696D6572732E637A
:101B5000000000004572726F723A25732C25640DE7
:101B60000A000000F0B587B073E0039800280CDA93
:101B700004AE2EB940F2E7223BA142A0FFF75AFA89
:101B8000D6E90020B168904700BF0398002860DBC9
:101B9000059C606908B9012000E0002010B9201DF3
:101BA00000F0F2F902A800F0CBF8054603980A28E5
:101BB0004DD2DFE800F00905072C2E4506082D2F31
:101BC00000BF00BF00BF00BF0498A2698118034690
:101BD0002A462046FFF7EAFEC0B12046616A8847E0
:101BE000E069012812D1002000900498A1694218F0
:101BF00000231946204601F095FD07462FB940F213
:101C0000213219A11FA0FFF715FA00BF20E000BF85
:101C10001EE000BF0498A061A06908B1012000E0A7
:101C2000002028B94FF44E720FA116A0FFF702FA58
:101C3000A06941192B462A462046FFF7B7FE07E068
:101C400094F8280010B9204600F078FA00E000BFB0
:101C500000BF00231A4603A90E48006800F09CFF4D
:101C6000002882D107B0F0BD2E2E5C467265655209
:101C7000544F535C7372635C74696D6572732E6349
:101C8000000000004572726F723A25732C25640DB6
:101C90000A00000074000020F8B505460C4600F06C
:101CA00049FE684600F04CF80646009820BB44B94F
:101CB000B54206D801F056FC31462846FFF710FF22
:101CC0001CE03CB10E480068006808B9012000E043
:101CD00000200446A91B22460A48006800F0C0FB09
:101CE00001F040FC50B94FF0805007490860BFF345
:101CF0004F8FBFF36F8F01E001F034FCF8BD00009F
:101D0000700000207400002004ED00E00A4909681A
:101D1000096809B9012100E0002121B14FF0FF312C
:101D2000064A116006E004490968C968C868034AA0
:101D300041681160704700003400002060000020FE
:101D400070B5044601F08AFA0546074800688542E6
:101D500004D200F00BF80120206001E00020206098
:101D600001480560284670BD7C0000202DE9F8433D
:101D70002DE021480068C06805681F480068C068F9
:101D8000C468201D00F000F92046616A8847E069B8
:101D900001281CD1A0694619AE4207D966602461AA
:101DA000211D1548006800F02BF910E000200346C3
:101DB0002A4601460090204601F0B4FC07462FB9A0
:101DC00040F292320DA114A0FFF734F900BF0A4887
:101DD0000068006808B9012000E000200028C8D091
:101DE0000548D0F8008010480068034908600E4894
:101DF000C0F80080BDE8F8836C0000202E2E5C4601
:101E000072656552544F535C7372635C74696D659F
:101E100072732E63000000004572726F723A257370
:101E20002C25640D0A000000700000200B4800689B
:101E3000401C08B9012000E0002020B9F42208A1CC
:101E400011A0FFF7F7F800BF502080F31188BFF30F
:101E50004F8FBFF36F8F00BF00BFFEE70000002071
:101E60002E2E5C4672656552544F535C706F7274CF
:101E70005C525644535C41524D5F434D335C706F2E
:101E800072742E63000000004572726F723A2573FF
:101E90002C25640D0A00000008B500BF6846FFF756
:101EA00041FC044620460099FFF7F6FEFFF75AFE74
:101EB000F4E770B5044600F0C9F894F945501AE00B
:101EC000A06C38B100212046FFF7B8FD88B100F0C2
:101ED000B1FB0EE0606A08B9012000E0002038B9CB
:101EE00004F1240001F0E0FA18B100F0A3FB00E0D7
:101EF00003E0681E45B2002DE2DC00BFFF2084F83D
:101F0000450000F0E5F800F0A1F894F9445010E025
:101F1000206908B9012000E0002048B904F1100050
:101F200001F0C2FA08B100F085FB681E45B200E07E
:101F300001E0002DECDC00BFFF2084F8440000F03D
:101F4000C7F870BD0648006830B10549096801F15D
:101F50004800896C491C0160014800687047000016
:101F600030000020001F4FF080730360001F21F03D
:101F700001030360001F034B036014380260203824
:101F8000704700002D1E000801460A69D1E90130A2
:101F90009860D1E9010358605068884201D188688F
:101FA0005060002008611068401E10601068704783
:101FB000034B0360034B0B608023136070470000EA
:101FC000B80F0020B8090020034B0360034B0B60DF
:101FD0004FF48073136070470C100020B80B002082
:101FE00000F1080141604FF0FF31816000F108010C
:101FF000C1600161002101607047002101617047EB
:1020000010B502460B685C1C0CB9106907E002F1C0
:10201000080000E04068446824689C42FAD944689B
:102020004C604C68A160886041600A611468641C5F
:10203000146010BD42684A6093688B609368596071
:102040009160086103685B1C0360704710B500BFB6
:10205000502080F31188BFF34F8FBFF36F8F00BF05
:102060000B480068401C0A490860084600680128BF
:102070000DD108480068C0B208B9012000E0002076
:1020800028B94FF4BD7204A10DA0FEF7D3FF10BD17
:102090000000002004ED00E02E2E5C4672656552C3
:1020A000544F535C706F72745C525644535C41528F
:1020B0004D5F434D335C706F72742E6300000000FF
:1020C0004572726F723A25732C25640D0A00000068
:1020D00010B50B48006828B940F2811209A113A07D
:1020E000FEF7A8FF06480068401E0549086008463C
:1020F000006820B9002080F3118800BF00BF10BD28
:10210000000000202E2E5C4672656552544F535CD1
:10211000706F72745C525644535C41524D5F434D34
:10212000335C706F72742E63000000004572726F32
:10213000723A25732C25640D0A00000070B506461E
:102140003546002E35D0083D2C461A49606809688E
:10215000084008B1012000E0002028B94FF4A07227
:1021600015A11EA0FEF766FF206808B9012000E057
:10217000002028B940F241120FA118A0FEF75AFF23
:102180000C4960680968084098B1206888B9094915
:10219000606809688843606000F0CCFB13496068A0
:1021A00009680844114908602046FFF7CBFB01F09D
:1021B000D9F970BD2C0000202E2E5C467265655248
:1021C000544F535C706F72745C4D656D4D616E67FA
:1021D0005C686561705F342E630000004572726F49
:1021E000723A25732C25640D0A000000240000209B
:1021F000124800684FF47A71B0FBF1F010490860A2
:10220000084600686FF07F41B1FBF0F00D490860AF
:102210000A480068B0FBF0F02D21B1FBF0F00A494C
:102220000860064800684FF47A71B0FBF1F0401E78
:102230004FF0E021486107200861704780000020CE
:1022400004000020080000200C0000202DE9F047C9
:1022500004464E480068844201D94C4804684FF057
:10226000E020006920F001004FF0E02108610846FD
:102270008169601E464A126802FB001545480068E5
:10228000854202D9434800682D1A72B6BFF34F8FBA
:10229000BFF36F8FFFF716F880B94FF0E020806929
:1022A0004FF0E02148610846006940F001000861F4
:1022B00037480068401E486162B665E04FF0E02094
:1022C000456100204FF0E02188610846006940F038
:1022D00001000861A146B9F1000404D0BFF34F8F9B
:1022E00030BFBFF36F8F4FF0E020D0F8108028F0A0
:1022F00001004FF0E021086162B608F48030B8B107
:1023000023490968491E4FF0E0229269AA1A881AE7
:1023100020490968884203D31D490968884202D9C7
:102320001B490968481E4FF0E0214861661E12E013
:102330001748006860434FF0E0218969471A144844
:102340000068B7FBF0F6701C114909684843C01BD0
:102350004FF0E021486100204FF0E0218861FFF755
:1023600075FE4FF0E020006940F001004FF0E021E1
:102370000861304600F0ACFA05480068401E4FF096
:10238000E0214861FFF7A4FEBDE8F08708000020C7
:10239000040000200C00002070B5FDF71BFF05466F
:1023A000102D11D305F1E02090F8F043104800788B
:1023B000844201DB012000E0002028B94FF42A729A
:1023C0000CA116A0FEF736FE1848006800F4E06085
:1023D00017490968884201D8012000E0002028B987
:1023E0004FF42E7203A10DA0FEF724FE70BD000075
:1023F000100000202E2E5C4672656552544F535CCF
:10240000706F72745C525644535C41524D5F434D41
:10241000335C706F72742E63000000004572726F3F
:10242000723A25732C25640D0A0000000CED00E0C3
:1024300014000020024600200BE0084B53F8303017
:1024400033B9064B43F8301003EBC0035A6002E087
:10245000401C0A28F1D300BF70470000B8000020DC
:102460002DE9F04105460E4617462C46FFF7EEFDD6
:1024700094F94400401C10B9002084F8440094F9F9
:102480004500401C10B9002084F84500FFF720FEED
:10249000A06B28B93A46314604F1240000F0FCF85C
:1024A0002046FFF706FDBDE8F081000070B5044648
:1024B0000025ACB10F48006808B9012000E00020F9
:1024C00028B940F2CF420CA111A0FEF7B3FD00F0F5
:1024D00031FA00212046FEF761FF01F043F805467E
:1024E0003DB94FF080500E490860BFF34F8FBFF3E6
:1024F0006F8F70BD680000202E2E5C46726565529D
:10250000544F535C7372635C7461736B732E63001E
:102510004572726F723A25732C25640D0A00000013
:1025200004ED00E070B50546FFF790FD15B92D48A4
:10253000006800E028460446201DFFF725FD78B915
:10254000E06A00EB8000284951F8200040B994F877
:102550002C100120884025490968814323480160E7
:10256000A06A18B104F11800FFF70EFD20480068BA
:10257000401C1F4908601B480068844209D1211D86
:102580001C48FFF757FD1C480068401C1A490860AA
:1025900009E01A480068401E184908602046FFF705
:1025A00063F8FFF7B3FBFFF793FD15480068C0B170
:1025B0000C480068844214D11248006808B9012010
:1025C00000E0002028B940F265420FA114A0FEF7F8
:1025D00031FD4FF0805016490860BFF34F8FBFF3B5
:1025E0006F8F70BD300000200801002048000020DF
:1025F0005C000020C40300203C00002040000020BC
:102600004C000020680000202E2E5C46726565524A
:10261000544F535C7372635C7461736B732E63000D
:102620004572726F723A25732C25640D0A00000002
:1026300004ED00E0012001490860704754000020CB
:1026400070B504460D462CB940F6063207A10DA020
:10265000FEF7F0FC0F48016818312046FFF7D0FC68
:1026600001212846FEF79AFE70BD00002E2E5C4622
:1026700072656552544F535C7372635C7461736B23
:10268000732E63004572726F723A25732C25640DA8
:102690000A0000003000002070B505460E461446C2
:1026A0002DB940F6313209A10EA0FEF7C3FC114846
:1026B000016818312846FFF7BDFC0CB14FF0FF361A
:1026C00021463046FEF76AFE70BD00002E2E5C46A5
:1026D00072656552544F535C7372635C7461736BC3
:1026E000732E63004572726F723A25732C25640D48
:1026F0000A0000003000002070B505462C46002D71
:102700004BD02649E06A0968C96A884245D2A06967
:1027100000F0004028B921480068C06AC0F12000DC
:10272000A061E16A01EB81011D4A02EB8101606950
:10273000884201D1012000E0002050B3201DFFF7A6
:1027400023FC78B9E06A00EB8000154951F82000BD
:1027500040B994F82C10012088401249096881433F
:10276000104801600D480068C06AE06294F82C10BF
:10277000012088400B49096808430A490860E16A5A
:1027800001EB8101064A02EB8100211DFFF752FC9B
:1027900003E002480068C06AE06270BD30000020BB
:1027A000080100204800002010B504462CB940F66E
:1027B000C13205A10AA0FEF73DFC0D48006820606B
:1027C0000C480068606010BD2E2E5C467265655234
:1027D000544F535C7372635C7461736B732E63004C
:1027E0004572726F723A25732C25640D0A00000041
:1027F000580000204400002010B586B0002005904D
:10280000049003AA04A905A8FFF7D2FB0022DDE982
:1028100004101346CDE9002102901CA11D48039A23
:1028200000F0BAFC1C4908600846006808B10124A1
:1028300000E00024012C02D100F026FF0446012C08
:1028400015D100BF502080F31188BFF34F8FBFF325
:102850006F8F00BF4FF0FF30104908600120104912
:10286000086000200F49086000F0C2F80BE0601C0F
:1028700008B1012000E0002028B940F284720AA1CA
:102880000FA0FEF7D7FB06B010BD000049444C4531
:10289000000000004D1700086400002060000020C8
:1028A0004C000020440000202E2E5C4672656552CC
:1028B000544F535C7372635C7461736B732E63006B
:1028C0004572726F723A25732C25640D0A00000060
:1028D00010B504460B48006820440B49096888423B
:1028E00001D8012000E0002028B940F6711207A1AC
:1028F0000CA0FEF79FFB03480068204401490860D4
:1029000010BD000044000020600000202E2E5C4618
:1029100072656552544F535C7372635C7461736B80
:10292000732E63004572726F723A25732C25640D05
:102930000A00000002480068401C01490860704716
:102940006800002010B51B48006818B101201A4922
:1029500008602DE000201849086018480068B0FAA7
:1029600080F0C0F11F0404EB8400154951F82000E9
:1029700008B1012000E0002028B940F6F62211A19C
:1029800016A0FEF757FB04EB84010D4A02EB810011
:1029900041684968416000F1080142688A4202D1F9
:1029A0004168496841604168C968104A116000BFC8
:1029B00010BD0000680000205400002048000020E6
:1029C000080100202E2E5C4672656552544F535C00
:1029D0007372635C7461736B732E63004572726F04
:1029E000723A25732C25640D0A0000003000002087
:1029F0001CB52248014609780191FF210246117059
:102A00000146097800919DF8001001F050011C4A20
:102A1000117007211B4A116009E01A490968491E13
:102A2000184A11609DF800104906090E00919DF8A2
:102A3000001001F080018029EFD0124909680902D5
:102A4000104A11601146098801F4E06111600B4AD7
:102A5000019911700C48006840F470000A49086040
:102A60000846006840F070400860FFF7C1FB002096
:102A700006490860FDF778FB00201CBD00E400E07B
:102A8000100000201400002020ED00E000000020D5
:102A900010B500BF502080F31188BFF34F8FBFF3F4
:102AA0006F8F00BF00F0E0FB18B14FF08050044979
:102AB000086000BF002080F3118800BF10BD000037
:102AC00004ED00E02DE9F84380460E4617461D460A
:102AD000DDF82090B8F1000F01D0012000E00020C7
:102AE00028B94FF4A97222A127A0FEF7A3FA0DB1CD
:102AF000012000E0002028B94FF4AB721CA122A0F5
:102B0000FEF798FA07B10EB1012000E0002028B9C5
:102B10004FF4AD7216A11CA0FEF78CFA07B90EB9DE
:102B2000012000E0002028B940F25B1210A116A09D
:102B3000FEF780FA4C20009000984C2801D101202B
:102B400000E0002028B940F2631209A10EA0FEF7B0
:102B500071FA2C464CB1012084F846004B463A46A7
:102B6000314640460094FEF73FFE2046BDE8F8831C
:102B70002E2E5C4672656552544F535C7372635CD3
:102B800071756575652E63004572726F723A2573B3
:102B90002C25640D0A0000002DE9FF4782B0054690
:102BA0000E461F464FF0000A2C462CB940F2DC427C
:102BB00061A167A0FEF73EFA0EB9206C08B90120AA
:102BC00000E0002028B940F2DD425BA160A0FEF7E2
:102BD00031FA00F033FB08B9049808B9012000E08D
:102BE000002028B94FF49C6253A159A0FEF722FAA5
:102BF00000BFFFF72BFAD4F83890B9F1000F3DD0A1
:102C0000D4F80C8031462046FEF7DAFCDFB9A9F192
:102C10000100A063206810B9FFF794F96060206993
:102C200008B9012000E0002010BB04F1100000F002
:102C30003BFCE8B14FF0805049490860BFF34F8F2B
:102C4000BFF36F8F14E0C4F80C80606A08B90120EC
:102C500000E0002060B904F1240000F025FC38B148
:102C60004FF080503E490860BFF34F8FBFF36F8F26
:102C7000FFF72EFA012006B0BDE8F087049818B9D6
:102C8000FFF726FA0020F6E7BAF1000F04D16846F4
:102C9000FFF78AFD4FF0010AFFF71AFAFFF74AFE25
:102CA000FFF7D4F994F94400401C10B9002084F8CF
:102CB000440094F94500401C10B9002084F84500F8
:102CC000FFF706FA04A9684600F014FA40BB204654
:102CD000FEF798FEF0B1206830B9FFF7B7F96068E9
:102CE000FFF70AFDFFF7F4F904F124000499FFF758
:102CF000A7FC2046FFF7DDF800F034FC00287FF445
:102D000078AF4FF0805016490860BFF34F8FBFF384
:102D10006F8F6EE72046FFF7CCF800F023FC68E7E2
:102D20002046FFF7C6F800F01DFC2046FEF76AFEBD
:102D30000028EED000209EE72E2E5C46726565527C
:102D4000544F535C7372635C71756575652E6300D7
:102D50004572726F723A25732C25640D0A000000CB
:102D600004ED00E070B505460E462C462CB940F245
:102D70001B121EA123A0FEF75DF9FFF767F9D4E946
:102D80000F12206801FB020060600020A063206831
:102D9000A060E06B401E226C216800FB0210E06026
:102DA000FF2084F8440084F845009EB9206908B9E2
:102DB000012000E00020A8B904F1100000F074FB2D
:102DC00080B14FF0805013490860BFF34F8FBFF3BD
:102DD0006F8F07E004F11000FFF702F904F12400FF
:102DE000FFF7FEF8FFF774F9012070BD2E2E5C4648
:102DF00072656552544F535C7372635C717565758F
:102E0000652E63004572726F723A25732C25640D2E
:102E10000A00000004ED00E02DE9FF4383B0064600
:102E200088461D464FF0000934462CB940F2D9229D
:102E300060A166A0FEF7FEF8B8F1000F01D1206C8A
:102E400008B9012000E0002028B940F2DA2259A197
:102E50005EA0FEF7EFF8022D02D1E06B012801D150
:102E6000012000E0002028B940F2DB2251A157A048
:102E7000FEF7E0F800F0E2F908B9059808B901207A
:102E800000E0002028B940F2DE224AA14FA0FEF760
:102E9000D1F800BFFFF7DAF8A06BE16B884201D3ED
:102EA000022D38D12A4641462046FEF79EFB0746B2
:102EB000A06C68B129462046FEF7C0FD28B34FF04C
:102EC000805046490860BFF34F8FBFF36F8F1CE0FF
:102ED000606A08B9012000E0002068B904F124000C
:102EE00000F0E2FA88B14FF080503C490860BFF32F
:102EF0004F8FBFF36F8F08E03FB14FF080503749DD
:102F00000860BFF34F8FBFF36F8FFFF7E1F8012029
:102F100007B0BDE8F083059818B9FFF7D9F800208D
:102F2000F6E7B9F1000F04D101A8FFF73DFC4FF01F
:102F30000109FFF7CDF8FFF7FDFCFFF787F894F9DB
:102F40004400401C10B9002084F8440094F9450066
:102F5000401C10B9002084F84500FFF7B9F805A916
:102F600001A800F0C7F8F0B92046FEF758FDA0B15F
:102F700004F110000599FFF763FB2046FEF799FF67
:102F800000F0F0FA002885D14FF080501349086016
:102F9000BFF34F8FBFF36F8F7CE72046FEF789FFAB
:102FA00000F0E0FA76E72046FEF783FF00F0DAFA59
:102FB0000020ADE72E2E5C4672656552544F535C7F
:102FC0007372635C71756575652E63004572726F0F
:102FD000723A25732C25640D0A00000004ED00E010
:102FE0002DE9F05F80468A4615461E4644462CB9B8
:102FF00040F29F3235A13BA0FEF71CF8BAF1000F5A
:1030000001D1206C08B9012000E0002028B94FF45C
:1030100068722EA133A0FEF70DF8022E02D1E06BEC
:10302000012801D1012000E0002028B940F2A1329E
:1030300026A12CA0FDF7FEFFFFF7AEF900BF50213F
:10304000EFF3118081F31188BFF34F8FBFF36F8FC0
:1030500000BF0746A06BE16B884201D3022E2BD143
:1030600094F945B0324651462046FEF7BEFA0BF1C0
:103070000100C8B9A06C40B131462046FEF7DEFC25
:10308000B8B1B5B10120286013E0606A08B9012029
:1030900000E0002068B904F1240000F005FA40B116
:1030A0003DB10120286004E00BF1010040B284F83A
:1030B00045004FF0010901E04FF0000900BF87F320
:1030C000118800BF4846BDE8F09F00002E2E5C46E8
:1030D00072656552544F535C7372635C71756575AC
:1030E000652E63004572726F723A25732C25640D4C
:1030F0000A0000002DE9F04104460D462CB940F6C7
:10310000CB3219A11EA0FDF795FF2DB940F6CC32A8
:1031100015A11BA0FDF78EFFFEF798FF1C4807685E
:103120002868401C08B9002619E01A492068096877
:10313000884204D06068B84201D801260FE0606878
:10314000381A2968884209D228686168791A401AB1
:1031500028602046FFF728FB002600E00126FEF746
:10316000B7FF3046BDE8F0812E2E5C467265655291
:10317000544F535C7372635C7461736B732E6300A2
:103180004572726F723A25732C25640D0A00000097
:1031900044000020580000202DE9F04F85B007467C
:1031A000884691469A46DDE90EB6109C0EB1012084
:1031B00000E0002028B940F2552216A11BA0FDF71F
:1031C00039FF0CB1012000E0002028B940F256225E
:1031D00010A116A0FDF72EFFACB1A6B125462E63B7
:1031E000022085F85100002004A953464A46CDE943
:1031F00000B1CDE9025041463846FEF70BFB2846A8
:10320000FEF718F901E000200490049805B0BDE82D
:10321000F08F00002E2E5C4672656552544F535C51
:103220007372635C7461736B732E63004572726FAB
:10323000723A25732C25640D0A00000005490968BF
:1032400009B9012005E00449096809B9022000E034
:10325000002070474C0000206800002001490868E9
:1032600070470000440000202DE9F0414FF00008B5
:1032700041480068002872D140480068451C3F481A
:103280000560EDB93E480068006808B9012000E01B
:10329000002028B940F6D9123AA140A0FDF7CAFE95
:1032A0003748076841480068354908603F4807606B
:1032B0003F480068401C3E490860FEF727FD00BFFC
:1032C0003C48006885423CD300BF2D480068006838
:1032D00008B9012000E0002020B14FF0FF3035494F
:1032E00008602DE026480068C068C4686668B5427A
:1032F00002D23048066023E0201DFEF745FEA06A9A
:1033000018B104F11800FEF73FFE94F82C100120CC
:10331000884029490968084327490860E16A01EBA8
:103320008101264A02EB8100211DFEF783FE24491C
:10333000E06A0968C96A8842C7D34FF00108C4E748
:1033400000BF1F480068C06A00EB80001B4951F8AD
:103350002000012801D94FF0010805E0FFE71948D6
:103360000068401C174908601748006808B14FF012
:1033700001084046BDE8F0816800002044000020BC
:10338000340000202E2E5C4672656552544F535C0B
:103390007372635C7461736B732E63004572726F3A
:1033A000723A25732C25640D0A00000038000020B5
:1033B0005800002060000020480000200801002084
:1033C00030000020500000205400002070B5054659
:1033D0002C460026002D4BD026480068844201D19F
:1033E000012000E0002028B940F6C76222A128A0F1
:1033F000FDF720FEA06C28B940F6C9621EA124A0EA
:10340000FDF718FEA06C401EA064616CE06A884263
:103410002ED0A06C60BB201DFEF7B6FD78B9E06A27
:1034200000EB80001E4951F8200040B994F82C10A0
:10343000012088401B49096881431A480160606C7B
:10344000E062E06AC0F12000A06194F82C10012035
:10345000884014490968084312490860E16A01EB91
:1034600081010F4A02EB8100211DFEF7E3FD0126D9
:10347000304670BD300000202E2E5C4672656552CD
:10348000544F535C7372635C7461736B732E63008F
:103490004572726F723A25732C25640D0A00000084
:1034A000080100204800002070B50646F068C46896
:1034B0002CB940F661321BA120A0FDF7BBFD04F141
:1034C0001800FEF761FD21480068A8B9201DFEF72D
:1034D0005BFD94F82C10012088401D4909680843C1
:1034E0001B490860E16A01EB81011A4A02EB810085
:1034F000211DFEF79FFD04E004F118011648FEF7B8
:1035000099FD1649E06A0968C96A884204D901250B
:1035100001201349086000E00025FEF7F7FB28466C
:1035200070BD00002E2E5C4672656552544F535C90
:103530007372635C7461736B732E63004572726F98
:10354000723A25732C25640D0A00000068000020E3
:103550004800002008010020B003002030000020B7
:103560005400002070B5002400263448006828B9B3
:103570004FF4FD6232A138A0FDF75CFDFEF766FD59
:103580002E480068401E2D49086008460068002843
:103590004FD13548006800284BD024E03348C0683C
:1035A000C46804F11800FEF7EFFC201DFEF7ECFCE8
:1035B00094F82C10012088402D49096808432C49B3
:1035C0000860E16A01EB81012A4A02EB8100211DBA
:1035D000FEF730FD2849E06A0968C96A884202D3CB
:1035E0000120264908602148006808B9012000E050
:1035F00000200028D2D00CB1FEF788FB20480568D7
:1036000065B100BFFFF730FE10B101201B49086013
:103610006D1E002DF6D1002019490860174800687A
:1036200038B10126300717490860BFF34F8FBFF349
:103630006F8FFEF74DFD304670BD00006800002022
:103640002E2E5C4672656552544F535C7372635CF8
:103650007461736B732E63004572726F723A2573D7
:103660002C25640D0A00000040000020B00300205B
:1036700048000020080100203000002054000020F5
:103680005000002004ED00E010B586B00024FDF7E6
:103690002BFF14480068D0B100200590049003AAC5
:1036A00004A905A8FEF790FC1F22DDE90410002301
:1036B000CDE9002102900CA10D48039AFFF76CFDA3
:1036C0000C4908600846006800B1012400BF2CB90D
:1036D00040F2331208A10FA0FDF7ACFC204606B063
:1036E00010BD000074000020546D722053766300FA
:1036F000991E0008780000202E2E5C4672656552E7
:10370000544F535C7372635C74696D6572732E639E
:10371000000000004572726F723A25732C25640D0B
:103720000A0000002DE9FF4704460D4616461F46D5
:10373000DDF830804FF000092CB94FF4D37217A197
:103740001DA0FDF777FC2048006810B30095019696
:103750000294062D15DAFFF771FD022808D1002327
:103760004246694618480068FFF756FB814610E05C
:1037700000231A46694614480068FFF74DFB81464E
:1037800007E000233A4669460F480068FFF728FC27
:103790008146484604B0BDE8F08700002E2E5C4606
:1037A00072656552544F535C7372635C74696D65E6
:1037B00072732E63000000004572726F723A2573B7
:1037C0002C25640D0A00000074000020EC3700086E
:1037D00000000020B800000054100008A4380008C1
:1037E000B8000020A813000064100008AAAAAAAA22
:1037F00000000000000000000000000000000000C9
:1038000000000000000000000000000000000000B8
:1038100000000000000000000000000000000000A8
:103820000000000000000000000000000000000098
:103830000000000000000000000000000000000088
:103840000000000000000000000000000000000078
:103850000000000000000000000000000000000068
:1038600000000000000000000000000000A24A0468
:103870000000000000000000010203040607080920
:103880000000000001020304010203040607080906
:103890000204060800000000000000000000000014
:0438A0000000000024
:0400000508000131BD
:00000001FF
